:100000000C94C1010C94E9010C94E9010C94E901F0
:100010000C94E9010C94E9010C94E9010C94E901B8
:100020000C94E9010C94E9010C94E9010C94E901A8
:100030000C94E9010C94E9010C94E9010C94E90198
:100040000C94B70C0C94E9010C94270D0C94010D41
:100050000C94E9010C94E9010C94E9010C94E90178
:100060000C94590D0C94E901005EBCE2613FDD8304
:10007000C29C7E20A3FD1F41009D23BE46DB65F888
:100080008C11AF32CA57E974493243207363616EF1
:1000900020636F6D706C6574652E0A004E6F204989
:1000A0003243206465766963657320666F756E649C
:1000B0002E0A00556E6B6E6F776E206572726F72CE
:1000C0002066726F6D2049324320646576696365EE
:1000D00020666F756E64206174206164647265735C
:1000E000732025582E0A00493243206465766963DF
:1000F0006520666F756E642061742061646472654A
:1001000073732025582E0A000A5363616E6E696E60
:100110006720493243206275732E0A005365747458
:10012000696E67204C434420646973706C61792068
:1001300061742025582E0A00454550524F4D2063CA
:100140006C65617220636F6D706C6574652E0A005A
:100150000A436C656172696E6720454550524F4D88
:100160002E0A000000000023002600290053656EBF
:10017000736F723A2025643A25642C20616464729E
:100180006573733A2025732C2074656D70657261F8
:10019000747572653A202544C2B0430A00446576FE
:1001A0006963652025733A256420697320257325CA
:1001B00073206465766963652E0A0044657465631F
:1001C0007465642025642064657669636573206FB7
:1001D0006E2070696E2025642E0A00506172617372
:1001E0006974696320706F77657220697320257365
:1001F00020666F7220746865204F6E65576972655E
:1002000020627573206F6E2070696E2025732E0A30
:10021000000A436865636B696E6720257320666F0B
:1002200072204F6E655769726520646576696365F3
:10023000732E0A0025732072656C617920746573D2
:1002400074206F6E2070696E20256420636F6D705E
:100250006C6574652E0A005475726E696E67202590
:10026000732072656C6179206F6E2070696E202535
:1002700064206F66662E0A005475726E696E672080
:1002800025732072656C6179206F6E2070696E2015
:100290002564206F6E2E0A000A54657374696E67B8
:1002A0002025732072656C6179206F6E2070696EF5
:1002B0002025642E0A000A42726577506920466143
:1002C0006D696C792041726475696E6F20556E6F2F
:1002D000205465737420636F6D706C6574652E0AAD
:1002E000000A446964206E6F742066696E64206140
:1002F0006E204C43442E0A000A42726577506920F2
:1003000046616D696C792041726475696E6F205524
:100310006E6F205465737420626567696E6E696ED6
:10032000672E0A0000000000240027002A000000B9
:100330000000250028002B00040404040404040425
:100340000202020202020303030303030102040880
:10035000102040800102040810200102040810202F
:100360000000000800020100000304070000000074
:100370000000000066616C736500747275650000B2
:10038000780E11241FBECFEFD8E0DEBFCDBF24E032
:10039000A0E1B3E001C01D92A739B207E1F713E075
:1003A000A0E0B1E0E6E2FCE302C005900D92A031CE
:1003B000B107D9F711E0C1ECD1E004C02197FE01EB
:1003C0000E946018C03CD107C9F70E94CC0E0C9463
:1003D000111E0C94000090E0FC01E05AFC4F2491A7
:1003E000FC01E45BFC4F3491FC01E85CFC4FE491C0
:1003F000EE23C9F0222339F0233001F1A8F4213093
:1004000019F1223029F1F0E0EE0FFF1FE25DFC4F01
:10041000A591B4918FB7F894EC91611126C03095F5
:100420003E233C938FBF08952730A9F02830C9F0B0
:10043000243049F7809180008F7D03C08091800037
:100440008F7780938000DFCF84B58F7784BDDBCF3B
:1004500084B58F7DFBCF8091B0008F778093B00003
:10046000D2CF8091B0008F7DF9CF3E2BDACFCF93E2
:10047000DF9390E0FC01E45BFC4F2491885C9C4F8F
:10048000FC0184918823D1F090E0880F991FFC0132
:10049000EC5DFC4FA591B491FC01E25DFC4FC59170
:1004A000D49161110EC09FB7F8948C91E22FE09522
:1004B0008E238C932881E223E8839FBFDF91CF9125
:1004C00008958FB7F894EC91E22BEC938FBFF6CFA1
:1004D0003FB7F8948091810390918203A0918303A8
:1004E000B091840326B5A89B05C02F3F19F0019653
:1004F000A11DB11D3FBFBA2FA92F982F8827BC017E
:10050000CD01620F711D811D911D42E0660F771FA5
:10051000881F991F4A95D1F708958F929F92AF92A5
:10052000BF92CF92DF92EF92FF926B017C010E940B
:1005300068024B015C01C114D104E104F104B9F07B
:100540000E946802681979098A099B09683E73400C
:100550008105910580F321E0C21AD108E108F10874
:1005600088EE880E83E0981EA11CB11CE4CFFF909A
:10057000EF90DF90CF90BF90AF909F908F900895B5
:1005800008950895DC01ED91FC910190F081E02D3A
:100590000994EF92FF920F931F93CF93DF938C01F7
:1005A0007B01D0E0C0E0F701EC0FFD1F64916623F2
:1005B00061F0D801ED91FC910190F081E02DC8012E
:1005C0000995892B11F02196EECFCE01DF91CF91C5
:1005D0001F910F91FF90EF900895AF92BF92CF922D
:1005E000DF92EF92FF920F931F93CF93DF936C01F3
:1005F0007B018B01040F151FEB015E01AE18BF08D4
:10060000C017D10759F06991D601ED91FC91019085
:10061000F081E02DC6010995892B79F7C501DF919D
:10062000CF911F910F91FF90EF90DF90CF90BF90EF
:10063000AF900895FC01538D448D252F30E0842F19
:1006400090E0821B930B541710F0CF9608950197FA
:100650000895FC01918D828D981761F0A28DAE0FE7
:10066000BF2FB11D5D968C91928D9F5F9F73928F6E
:1006700090E008958FEF9FEF0895FC01918D828D9A
:10068000981731F0828DE80FF11D858D90E0089567
:100690008FEF9FEF0895FC01918D228D892F90E0BF
:1006A000805C9F4F821B91098F739927089585ED78
:1006B00093E00E944B0321E0892B09F420E0822F74
:1006C000089580E090E0892B29F00E945703811162
:1006D0000C9400000895FC01A48DA80FB92FB11D42
:1006E000A35ABF4F2C91848D90E001968F73992768
:1006F000848FA689B7892C93A089B1898C91837046
:1007000080648C93938D848D981306C00288F3893E
:10071000E02D80818F7D80830895EF92FF920F936B
:100720001F93CF93DF93EC0181E0888F9B8D8C8D9D
:1007300098131AC0E889F989808185FF15C09FB791
:10074000F894EE89FF896083E889F9898081837054
:10075000806480839FBF81E090E0DF91CF911F9103
:100760000F91FF90EF900895F62E0B8D10E00F5F24
:100770001F4F0F731127E02E8C8D8E110CC00FB6FA
:1007800007FCFACFE889F989808185FFF5CFCE0192
:100790000E946B03F1CFEB8DEC0FFD2FF11DE35A9F
:1007A000FF4FF0829FB7F8940B8FEA89FB89808115
:1007B0008062CFCFCF93DF93EC01888D8823B9F08F
:1007C000AA89BB89E889F9898C9185FD03C080815C
:1007D00086FD0DC00FB607FCF7CF8C9185FFF2CFD9
:1007E000808185FFEDCFCE010E946B03E9CFDF91C1
:1007F000CF910895089520915103260F3327331F79
:1008000021323105ECF42091AB03FC0190E080E053
:10081000243069F082E00895A09151032191AC0148
:100820004F5C5C4FA40FB52FB11D2C93019686171A
:1008300098F380915103680F6093510380E008950D
:1008400081E00895ECEBF0E080818A7B808360E0BA
:1008500082E10E94EB0160E083E10C94EB011092D5
:10086000AB0381E08093AA031092850361E082E1EB
:100870000E94EB0161E083E10E94EB01E9EBF0E013
:1008800080818E7F808380818D7F808388E48093C8
:10089000B80085E48093BC000895CF93DF9391E086
:1008A00090933003882361F0C091B800D091BA00D2
:1008B0000E9422040E942F04D093BA00C093B80073
:1008C000DF91CF910895CF92DF92EF92FF920F9335
:1008D0001F93CF93DF93D091D40381E0D13208F0FE
:1008E0009CC0C091D3030E9468026B017C0180917F
:1008F000AB0381116CC082E08093AB0381E08093F5
:10090000AA038FEF8093A9031092A803D093A703A3
:10091000A3EBB3E0E7E8F3E080E0D8138DC01092DA
:10092000860380918603CC0FC82BC09386038091E9
:100930008503813009F084C0109285030E9468020B
:100940006B017C01809186038093BB008091AD0395
:100950009091AE03A091AF03B091B003892B8A2B85
:100960008B2BA1F00E9468020091AD031091AE03A1
:100970002091AF033091B0036C197D098E099F0956
:10098000061717072807390708F442C08091BC00F2
:1009900083FDD8CF85EC8093BC000E9468026B0178
:1009A0007C018091AB03823009F44CC08091A90393
:1009B0008F3F09F469C08091A903803209F466C0B1
:1009C0008091A903803309F463C084E026C080913C
:1009D000AD039091AE03A091AF03B091B003892B0A
:1009E0008A2B8B2B09F483CF0E9468020091AD0300
:1009F0001091AE032091AF033091B0036C197D09C3
:100A00008E099F09061717072807390708F06FCFC7
:100A10008091AC030E944D0485E01092B2031092C5
:100A2000D4031092B103DF91CF911F910F91FF90EA
:100A3000EF90DF90CF9008959D9191938F5F6DCF50
:100A400085EEA9CF8091AD039091AE03A091AF0345
:100A5000B091B003892B8A2B8B2B09F4A2CF0E9473
:100A600068020091AD031091AE032091AF03309165
:100A7000B0036C197D098E099F090617170728070F
:100A8000390708F08ECFC4CF80E0C7CF82E0C5CF52
:100A900083E0C3CF0895E091790380917803E8174C
:100AA00030F4F0E0E05FFC4F808190E008958FEF3C
:100AB0009FEF089590917903809178032FEF3FEF96
:100AC000981748F4E92FF0E0E05FFC4F208130E018
:100AD0009F5F90937903C901089580917803909165
:100AE0007903891B990B0895CF92DF92EF92FF92C1
:100AF0000F931F93CF93DF937C01CB018A01209149
:100B0000B103222389F0EB016B01C40ED51ECC1575
:100B1000DD0569F06991D701ED91FC910190F081BB
:100B2000E02DC7010995F3CF642F0E94FB03C80194
:100B3000DF91CF911F910F91FF90EF90DF90CF90B9
:100B40000895CF93DF931F92CDB7DEB769832091CD
:100B5000B1032223F9F02091D403203258F021E090
:100B600030E0FC013383228390E080E00F90DF913E
:100B7000CF9108958091B203E82FF0E0ED54FC4F3F
:100B8000998190838F5F8093B2038093D40381E037
:100B900090E0ECCF61E0CE0101960E94FB03F7CF1D
:100BA000FC01248131E03093B1032093D3031092F0
:100BB000B2031092D4038385682B82E794E00E94ED
:100BC000A1050C94630490E080E00895DC0180E0CE
:100BD000615090F09D919827E92FEF70F0E0E8596F
:100BE000FF4F2491E92FE295EF70F0E0E858FF4FB6
:100BF000E491822F8E27ECCF0895DC012C91119681
:100C0000ED91FC91F8948181822B81839281322F26
:100C100030959323928387E090E00197F1F78181EB
:100C20008323818383E290E00197F1F790817894A8
:100C3000EFECF0E03197F1F7922381E009F480E0E6
:100C40000895FC0190810180F281E02D292F2095EB
:100C500060FF14C0F8948281822382838181892B72
:100C60008183A3E2B0E01197F1F78281982B928300
:100C7000789487ED90E00197F1F70895F8948281D8
:100C8000822382838181892B8183AFEFB0E011972A
:100C9000F1F78281982B928378948FE090E0EBCFEC
:100CA000DF92EF92FF920F931F93CF93DF93EC01AC
:100CB000D62EE42E08E010E0FF24F39461E08D2DA1
:100CC0008F2109F460E0CE010E942106FF0C015043
:100CD0001109A1F7E11010C0F894E981FA8191811E
:100CE0008881809589238183E981FA819281888135
:100CF0008095892382837894DF91CF911F910F9102
:100D0000FF90EF90DF900895EF92FF920F931F9363
:100D1000CF93DF938C017B0140E065E50E94500694
:100D2000E70188E0E80EF11C699140E0C8010E94EB
:100D30005006CE15DF05C1F7DF91CF911F910F91BE
:100D4000FF90EF900895FC0190810180F281E02DE9
:100D5000F8948181292F20958223818378943DE71F
:100D600043E050E0315029F1DA011197F1F7808129
:100D70008923C1F3F8948281822382838181892B24
:100D800081837894ABE7B7E01197F1F7F89481810C
:100D900082238183A3E1B1E01197F1F78081982349
:100DA00081E009F080E07894E3E6F6E03197F1F72E
:100DB000089580E008954F925F926F927F928F9294
:100DC0009F92AF92BF92CF92DF92EF92FF920F93DA
:100DD0001F93CF93DF938C017B01EA01FC01818596
:100DE00092850E94A3068823D9F1B701F801818575
:100DF00092850E94840640E06EEBF8018185928521
:100E00000E9450066E015E01F9E0AF0EB11C7E013A
:100E1000F8018184928488E0682E712C512C44243E
:100E20004394C4010E94FD0581115428440CF1E053
:100E30006F1A7108B1F7F70151927F01AE16BF0624
:100E400039F7F801818592850E94A306813041F42B
:100E5000F60181916F01811105C0EE15FF05C1F703
:100E600090E008C068E0CE010E94E60591E0288588
:100E70002813F6CF892FDF91CF911F910F91FF900B
:100E8000EF90DF90CF90BF90AF909F908F907F902A
:100E90006F905F904F9008950F931F934FB7F89402
:100EA00000917D0310917E0320917F033091800398
:100EB0004FBF600F711F821F931F4FB7F8940091AF
:100EC0007D0310917E0320917F03309180034FBFFB
:100ED000061717072807390780F31F910F91089508
:100EE000BF92CF92DF92EF92FF920F931F93CF9317
:100EF000DF93EC01B62EC72E8D85811105C0CE0182
:100F00000E94A30681110EC01B861D861C8680E0F0
:100F1000DF91CF911F910F91FF90EF90DF90CF90D5
:100F2000BF90089540E060EFCE010E94500601E0BE
:100F3000E12CD12C11E0CE010E94FD05F82ECE014E
:100F40000E94FD0591E0F91218C0813099F5113425
:100F5000D8F2DB86D11002C081E08D878B81882397
:100F600099F22396EB2DFC2DCF0108962991219320
:100F7000E817F907D9F781E0CBCFEE2DF0E0F812B2
:100F80000FC08B851817A0F4DE01AE0FBF1F13969C
:100F90008C91802379F4F12C193008F41C87D12E20
:100FA000EC0FFD1F8381902F9095892383830AC0C6
:100FB0008113F1CFFE01EE0DF11D8381802B838320
:100FC000FF24F3946F2DCE010E9421061F5F000FB6
:100FD00011F4E39401E087E08E1508F0ACCFB7CFB1
:100FE000DF92EF92FF920F931F93CF93DF937C01D9
:100FF0008B01D42EDC011996ED91FC911386158698
:101000001486128611861086178216821582148223
:101010001382C0E0B801F701818592850E947007B4
:10102000D82F882329F0DC1629F0CF5FDC1690F743
:10103000D0E009C067E0C8010E94E605D801179614
:101040009C918913F2CF8D2FDF91CF911F910F913A
:10105000FF90EF90DF9008950F931F93CF938C0133
:10106000C62F0E94D0056C2F6460C8010E94D00575
:101070006C2F6B7FC8010E94D00583EC90E0019734
:10108000F1F7CF911F910F9108950F931F93CF9375
:10109000DF938C01D62FC42F607F642B0E942C0815
:1010A00080E1D89FB00111246C2BC801DF91CF9152
:1010B0001F910F910C942C08CF93DF93CDB7DEB71F
:1010C00028970FB6F894DEBF0FBECDBF98E0E6E0DC
:1010D000F1E0DE01119601900D929A95E1F7909161
:1010E0008F04961710F46FEF690F262F30E0220F50
:1010F000331F41E050E04C0F5D1F240F351FF901F5
:101100006081680F606840E087E894E028960FB639
:10111000F894DEBF0FBECDBFDF91CF910C94450890
:1011200040E061E087E894E00E9445088BE39FE19E
:101130000197F1F70895CF93DF93823028F09091D3
:101140008C04986090938C0480938F0462E370E029
:1011500080E090E00E948D026091920487E894E024
:101160000E94D00568EE73E080E090E00E948D025E
:1011700060E387E894E00E942C08CBE4D6E4CE013B
:101180000197F1F760E387E894E00E942C0821972B
:10119000F1F760E387E894E00E942C0883E592E091
:1011A0000197F1F760E287E894E00E942C086091D3
:1011B0008C04606240E087E894E00E94450884E087
:1011C00080938D0440E06CE087E894E00E9445083D
:1011D0000E94900882E080938E0440E066E087E8F9
:1011E00094E00E94450840E062E087E894E00E94B5
:1011F00045088BE39FE10197F1F7DF91CF910895C7
:1012000041E00E94450881E090E00895FB010190D3
:101210000020E9F73197AF01461B570BDC01ED9138
:10122000FC910280F381E02D09948F929F92AF92FE
:10123000BF92EF92FF920F931F93CF93DF93CDB79F
:10124000DEB7A1970FB6F894DEBF0FBECDBF7C010D
:10125000FA01CB0119A2223008F42AE08E010F5DB9
:101260001F4F822E912CB12CA12CBF01A5019401FE
:101270000E942A18F901CA016A300CF5605DD80194
:101280006E938D01232B242B252B79F790E080E0A2
:10129000109721F0BD01C7010E940609A1960FB663
:1012A000F894DEBF0FBECDBFDF91CF911F910F919C
:1012B000FF90EF90BF90AF909F908F900895695CE2
:1012C000DECFCF92DF92EF92FF920F931F93CF93D7
:1012D000DF936B01770FEE08FF084A305105F1F4F8
:1012E0002AE0F7FE1CC0EC016DE20E94C2028C01F4
:1012F00044275527BA014C195D096E097F092AE078
:10130000CE010E941509800F911FDF91CF911F918F
:101310000F91FF90EF90DF90CF900895242FB701A9
:10132000A601DF91CF911F910F91FF90EF90DF9079
:10133000CF900C9415092F923F924F925F926F922B
:101340007F928F929F92AF92BF92CF92DF92EF9255
:10135000FF921F93CF93DF93EC016A017B01722E02
:10136000AB019601CB01B6010E94791964E571E0E9
:10137000811126C046015701E894B7F82FEF3FEFDF
:101380004FE75FE7C501B4010E94791981110CC0D4
:101390002FEF3FEF4FE75FE7C501B4010E94A516AD
:1013A00068E571E0181664F02FEF3FEF4FE75FE458
:1013B000C701B6010E9474191816B4F46CE571E007
:1013C000CE01DF91CF911F91FF90EF90DF90CF90F2
:1013D000BF90AF909F908F907F906F905F904F9055
:1013E0003F902F900C9406092FEF3FEF4FE75FECF3
:1013F000C701B6010E94A51687FDE0CF20E030E0CE
:10140000A901C701B6010E94A516312C212C87FF26
:1014100009C06DE2CE010E94C2021C01F7FAF094ED
:10142000F7F8F09410E060E070E080E09FE3711660
:1014300041F020E030E040E251E40E94D3181F5F09
:10144000F6CFA70196010E9467182B013C010E946C
:1014500045194B015C012AE0BC01A401CE010E94A8
:1014600015097C01E20CF31C1123C1F1C501B40183
:101470000E94AA169B01AC01C301B2010E9466182A
:101480004B015C016EE2CE010E94C202E80EF91E21
:10149000115020F120E030E040E251E4C501B401F8
:1014A0000E940B172B013C010E9445194B01B12CE6
:1014B000A12C2AE0B501A401CE010E941509E80E75
:1014C000F91EC501B4010E94AA169B01AC01C3011B
:1014D000B2010E9466184B015C01DACFC701DF91AF
:1014E000CF911F91FF90EF90DF90CF90BF90AF9082
:1014F0009F908F907F906F905F904F903F902F9034
:1015000008956115710511F00C94060990E080E0D2
:1015100008954F925F926F927F92AF92BF92CF9257
:10152000DF92EF92FF920F931F93CF93DF9300D040
:1015300000D000D01F92CDB7DEB70A8D1B8DCC8CAA
:10154000DD8C80917E0490917F04801791070CF4CC
:101550003AC1E0918304F0918404309729F080919E
:101560008104909182040995809180048823D9F0A8
:1015700087E0EAE6F1E0DE01119601900D928A958E
:10158000E1F7FE01E00FF11F6081809181049091ED
:1015900082040E94C20260EC72E08091810490910A
:1015A00082040E94810A8E01025E1F4F76018FEF36
:1015B000E81AF80AF6016491662309F4F9C0670194
:1015C000FFEFCF1ADF0A653209F0EAC0F701849114
:1015D000882341F0853259F48091810490918204EE
:1015E0000E94C2027601FFEFEF1AFF0AE3CF8337B2
:1015F00071F47801F2E0EF0EF11CF8016081718165
:1016000080918104909182040E94810A38C08335C0
:1016100071F47801F2E0EF0EF11CF8016081718144
:1016200080918104909182040E94C90228C084366E
:1016300011F0893681F47801F2E0EF0EF11CF80127
:10164000608171814AE050E0809181049091820430
:101650000E94610914C0982F9D7F943491F4780101
:10166000F4E0EF0EF11CF801408151816281738139
:1016700022E080918104909182040E949B0987015D
:10168000B1CF883751F47801F2E0EF0EF11CF80188
:101690006081718140E150E0D7CF883549F460E640
:1016A00071E080918104909182040E94810AEBCFC5
:1016B000823651F47801F2E0EF0EF11CF8016081FE
:1016C000718142E050E0C0CF823449F463E671E0BA
:1016D00080918104909182040E94810AEBCF8C3624
:1016E00019F5E0908104F09082045801F4E0AF0E07
:1016F000B11CF80140805180628073802AE0B30100
:10170000A20177FE0CC06DE2C7010E94C20244270D
:101710005527BA0144195509660977092AE0C70116
:101720000E94150985015ECF833669F47801F2E0E5
:10173000EF0EF11CF8016081809181049091820488
:101740000E94C2029CCF8437A1F47801F2E0EF0E30
:10175000F11C8091810490918204F80120813181F3
:1017600066E671E02130310509F44ECF68E671E09C
:101770004BCF843509F036CF7801F2E0EF0EF11C43
:101780008091810490918204F801208131816AE77F
:1017900073E02130310509F447CF64E773E044CFAB
:1017A00080918104909182040E94C20267011ACF45
:1017B000E0918504F0918604309729F080918104AE
:1017C00090918204099527960FB6F894DEBF0FBE5C
:1017D000CDBFDF91CF911F910F91FF90EF90DF90E0
:1017E000CF90BF90AF907F906F905F904F90089593
:1017F0000F931F93CF93DF93EC018881998100971A
:1018000059F02A813B812617370730F081E0DF91BC
:10181000CF911F910F9108958B016F5F7F4F0E94B1
:10182000A31A009759F0998388831B830A832C811C
:101830003D81232B59F7FC011082E8CF80E0E7CFF0
:10184000CF93DF93EC01198218821B821A821D82CA
:101850001C8270E060E00E94F80B288139818111C0
:101860000FC02115310519F0C9010E941A1A1982F9
:1018700018821D821C821B821A82DF91CF910895EB
:101880001D821C8267E771E0C901DF91CF910C9442
:10189000691BEF92FF920F931F93CF93DF93EC019D
:1018A0007B01FB0101900020E9F731978F01061BB6
:1018B000170BB8010E94F80B28813981811113C0E0
:1018C0002115310519F0C9010E941A1A19821882CE
:1018D0001D821C821B821A82DF91CF911F910F9172
:1018E000FF90EF9008951D830C83B701C901DF912C
:1018F000CF911F910F91FF90EF900C94691B85ED94
:101900008093BC008091AD039091AE03A091AF0392
:10191000B091B0030796A11DB11D23E0B695A79520
:10192000979587952A95D1F72091BC0024FD03C097
:101930001092AB0308954091AD035091AE036091B6
:10194000AF037091B003452B462B472B69F30097EB
:10195000A105B10541F025E32A95F1F700000197B3
:10196000A109B109E1CF8091AC030C944D041F9201
:101970000F920FB60F9211242F933F938F939F9343
:10198000AF93BF9380917D0390917E03A0917F03DD
:10199000B091800330917C0323E0230F2D3758F55D
:1019A0000196A11DB11D20937C0380937D0390932C
:1019B0007E03A0937F03B093800380918103909175
:1019C0008203A0918303B09184030196A11DB11DF0
:1019D0008093810390938203A0938303B093840345
:1019E000BF91AF919F918F913F912F910F900FBE1B
:1019F0000F901F90189526E8230F0296A11DB11D88
:101A0000D2CF1F920F920FB60F9211242F933F93B4
:101A10004F935F936F937F938F939F93AF93BF93F6
:101A2000EF93FF9385ED93E00E946B03FF91EF919D
:101A3000BF91AF919F918F917F916F915F914F91E6
:101A40003F912F910F900FBE0F901F9018951F92EE
:101A50000F920FB60F9211242F938F939F93EF93B2
:101A6000FF93E091E503F091E6038081E091EB03C1
:101A7000F091EC0382FD1BC090818091EE038F5F9B
:101A80008F732091EF03821741F0E091EE03F0E0B5
:101A9000EB52FC4F958F8093EE03FF91EF919F9156
:101AA0008F912F910F900FBE0F901F9018958081EE
:101AB000F4CF1F920F920FB60F9211242F933F93E2
:101AC0004F935F936F937F938F939F93AF93BF9346
:101AD000EF93FF938091B900887F803609F44AC064
:101AE000F0F5883209F4A7C018F5803109F49BC0DD
:101AF000B8F4882309F4F9C0883009F494C0FF9140
:101B0000EF91BF91AF919F918F917F916F915F9175
:101B10004F913F912F910F900FBE0F901F901895EE
:101B2000883109F488C0803251F78093A90314C02A
:101B3000803409F49DC040F48033B9F38833F9F65A
:101B40008093A90385ECB0C0803509F485C0883541
:101B500009F496C0883499F60E947F0CD0CF88395A
:101B600009F48CC038F5883729F050F4883611F024
:101B7000803729F683E08093AB031092730357C03C
:101B8000883809F47BC0803919F0803809F0B7CF64
:101B900080917303803208F071C0E091730381E09B
:101BA0008E0F809373038091BB00F0E0ED5AFC4FE1
:101BB00080833DC0803B39F0E0F4803A09F479C07D
:101BC000883A09F09CCF84E08093AB0310925203D3
:101BD00010925103E0917603F0917703099580917B
:101BE000510381110FC081E08093510310923103A2
:101BF00009C0803C09F4A6CF883C09F4A3CF883BF8
:101C000009F07DCFE091520381E08E0F8093520363
:101C1000F0E0EF5CFC4F80818093BB009091520319
:101C20008091510329C0809186038093BB0085EC8D
:101C30008093BC0064CF9091A8038091A70398176C
:101C400058F5E091A80381E08E0F8093A803F0E09F
:101C5000E957FC4F8081E9CFE091A80381E08E0F26
:101C60008093A8038091BB00F0E0E957FC4F80838C
:101C70009091A8038091A7039817C8F285E8D8CF60
:101C8000E091A80381E08E0F8093A8038091BB00B0
:101C9000F0E0E957FC4F80838091AA0381115CCF6B
:101CA00081E08093850384EA8093BC001092AB03AB
:101CB00026CF85EC8093BC001092AB038091730318
:101CC000803230F4E0917303F0E0ED5AFC4F108263
:101CD0006091730370E0E0917403F091750383E504
:101CE00093E00995109273030ACF1092A90334CFA1
:101CF000E5EDF3E01382128288EE93E0A0E0B0E01D
:101D000084839583A683B78328E231E031832083DF
:101D100025EC30E03587248724EC30E037872687B0
:101D200020EC30E0318B208B21EC30E0338B228BA8
:101D300022EC30E0358B248B26EC30E0378B268B81
:101D4000118E128E138E148EE2E7F4E0138212824B
:101D500084839583A683B7838AE391E0918380830C
:101D6000EEE7F4E01182108281E082831482138214
:101D70001682158210861782E7E8F4E01382128239
:101D80008CE491E09183808387E2848384E181877E
:101D900084E0828713860895CF93DF93CDB7DEB7B3
:101DA000C155D1090FB6F894DEBF0FBECDBF7894F0
:101DB00084B5826084BD84B5816084BD85B5826050
:101DC00085BD85B5816085BD80916E008160809301
:101DD0006E0010928100809181008260809381006A
:101DE000809181008160809381008091800081607A
:101DF000809380008091B10084608093B1008091D5
:101E0000B00081608093B00080917A0084608093FC
:101E10007A0080917A00826080937A0080917A00C3
:101E2000816080937A0080917A00806880937A0044
:101E30001092C10061E085E00E94370261E085E018
:101E40000E94EB0161E086E00E94370261E086E0DB
:101E50000E94EB0161E08DE00E94370260E08DE0BE
:101E60000E94EB01E091E503F091E60382E08083BC
:101E7000E091E103F091E2031082E091E303F0913D
:101E8000E4038FEC80831092ED03E091E903F0917D
:101E9000EA03A6E0FA2EF082E091E703F091E8036E
:101EA000808180618083E091E703F091E803808185
:101EB00088608083E091E703F091E8038081806887
:101EC0008083E091E703F091E80380818F7D808338
:101ED00085ED93E00E94DA030EE714E086E090E0DF
:101EE00090937F0480937E041092800485ED93E0AC
:101EF000909382048093810465E771E00E94060953
:101F000088EF92E09F938F931F92FF921F930F93FE
:101F10000E94890A10927903109278031092B203FA
:101F20001092D4030E942F0480EC92E090937703E8
:101F30008093760381EC92E0909375038093740311
:101F400088E091E09F938F931F9284E08F931F937B
:101F50000F930E94890A0FB6F894DEBF0FBECDBF63
:101F600001E010E0D12CC12C77247394B3EBAB2E9D
:101F7000B0E0BB2E8EE7E82E84E0F82E97EE892E97
:101F800090E0992E24E0622E7092B1030093D30367
:101F90001092B2031092D4030E946304811102C212
:101FA0001F930F939F928F921F926F92FF92EF92C7
:101FB0000E94890A00937A033FEFC31AD30A0FB62F
:101FC000F894DEBF0FBECDBF0F5F1F4F0F37110557
:101FD000D9F60E942204CD2809F0F2C110927B03A9
:101FE0008CE990E09F938F931F9284E08F938EE70C
:101FF00094E09F938F930E94890A0F900F900F9007
:102000000F900F900F9088E890E09F938F931F920E
:10201000F4E0FF2EFF920EE714E01F930F930E944F
:10202000890A0F900F900F900F900F900F90809152
:102030007B03882309F4E1C180917A031F928F9377
:102040008CE191E09F938F931F92FF921F930F93C8
:102050000E94890A80917A030FB6F894DEBF0FBE02
:10206000CDBF18E001E0882309F4AEC180938B0452
:1020700010927903109278031092B2031092D40355
:102080000E942F0480EC92E0909377038093760374
:1020900081EC92E0909375038093740310928C040A
:1020A000809191040E949B0884E00E949B080E94FA
:1020B000900888E08093920460E087E894E00E94B2
:1020C000D00560E081E00E945C0868E771E087E885
:1020D00094E00E94810A62E080E00E945C086BE864
:1020E00071E087E894E00E94810A63E087E00E9443
:1020F0005C086FE971E087E894E00E94810A68EB70
:102100007BE080E090E00E944C0780E591E09F93A7
:102110008F931F9284E08F938EE794E09F938F9329
:102120000E94890A0F900F900F900F900F900F90C0
:1021300080917B03882391F00E94900860E082E008
:102140000E945C0866EA71E087E894E00E94810AD8
:1021500068EE73E080E090E00E944C0710E000E041
:10216000C8010E94C917882321F060E0C8010E94BD
:10217000D1170F5F1F4F0115F4E01F0789F768EEB5
:1021800073E080E090E00E944C0788E391E09F9329
:102190008F931F9284E08F938EE794E09F938F93A9
:1021A0000E94890A0F900F900F900F900F900F9040
:1021B00080917B03882391F00E94900860E082E088
:1021C0000E945C0867EB71E087E894E00E94810A56
:1021D00060ED77E080E090E00E944C07B0907B03D8
:1021E00081E0B826CB2CD12C7601EE0CFF1CF70138
:1021F000E85EFE4F9080A180AF929F9281E192E0D5
:102200009F938F931F9284E08F938EE794E09F9328
:102210008F930E94890A0FB6F894DEBF0FBECDBF20
:1022200080917B03882341F10E94900860E080E068
:102230000E945C0867EC71E087E894E00E94810AE4
:1022400061E080E00E945C0868ED72E087E894E05D
:102250000E94810A692D7A2D87E894E00E94810A04
:1022600065EB71E087E894E00E94810A68EB7BE00F
:1022700080E090E00E944C07F701EC5EFE4F008189
:10228000118160E0802F0E9437021127F801E45B82
:10229000FC4FE491E9ABF801E85CFC4FE491F0E01D
:1022A000EE0FFF1FED59FE4F859194919BAB8AABCA
:1022B0001CAE1EAE1DAE18AA1FA61B8ECE01C19667
:1022C0009CA38BA319A21AA21A8E89E08D8F81E09C
:1022D0008E8F8F8F88A31BAE1AAE19AE18AE1FAAB1
:1022E0001EAA1DAA1CAA11E0BE01615C7F4F8BA132
:1022F0009CA10E947007882309F4AAC067E0CE0160
:10230000CF960E94E60527969FAD27978913ECCFBD
:1023100089A18F5F89A38FAD883231F008F07FC02B
:10232000803111F0823201F78AA18F5F8AA38A8DF2
:1023300081111DC08BA19CA10E94A306BE01615CFE
:102340007F4F8BA19CA10E94840640E064EB8BA18F
:102350009CA10E9450068BA19CA10E94FD05082F04
:102360008BA19CA10E94A306011101C01A8F8FAD01
:10237000803109F460C0AE014F5F5F4FBE01615C08
:102380007F4FCE014A960E94DB06882349F08D815B
:102390008F3309F459C008F049C08F3109F456C091
:1023A00080E04CC0843009F00FCE1F930F93BF9292
:1023B000AF921F928F93FF92EF920E94890AFFCDF6
:1023C00081E080937B031FCE0093B1031093D3036E
:1023D0001092B2031092D4030E946304811109C0C9
:1023E00010938B0461E070E080E090E00E948D0229
:1023F00018E71F5F183740F33BCE81EE92E09F93C2
:102400008F931F9286E08F931F930F930E94890AE8
:102410000F900F900F900F900F900F9076CE8B3300
:1024200009F482CF823409F05FCF7ECF8F3529F057
:102430008F3709F0B5CF8CE001C08BE09D8D9817E8
:1024400008F052CF8D8F50CF8AE0F8CF89E0F6CFD9
:102450001A8D81E791E0112311F088ED91E0AF92A0
:102460009F929F938F938BED91E09F938F931F92F9
:1024700084E08F938EE794E09F938F930E94890A64
:102480000FB6F894DEBF0FBECDBF80917B038823CB
:1024900091F10E94900860E080E00E945C086BED82
:1024A00071E087E894E00E94810A61E080E00E9488
:1024B0005C086EEE71E0111102C062EF71E087E816
:1024C00094E00E94810A67EF71E087E894E00E943F
:1024D000810A692D7A2D87E894E00E94810A65EBD4
:1024E00071E087E894E00E94810A68EB7BE080E07D
:1024F00090E00E944C071F92BF9289A11F928F9378
:102500008BEB91E09F938F931F9284E08F938EE7E4
:1025100094E09F938F930E94890A0FB6F894DEBFD0
:102520000FBECDBF80917B03882309F10E949008E4
:1025300060E080E00E945C0860E072E087E894E080
:102540000E94810A49A150E070E060E02AE087E83B
:1025500094E00E9415096AE072E087E894E00E9426
:10256000810A60ED77E080E090E00E944C0710E087
:1025700000E0F701E85EFE4F3F014DE9A42E41E087
:10258000B42E54E0552E6EE7862E64E0962E89A177
:102590008017110609F00CF4CBC0402FBE01695B17
:1025A0007F4FCE014A960E94F007CE01CF960E943F
:1025B000200CCE0101960E94200C28968FAD289702
:1025C000823209F4ACC058F48031B9F065E372E0AE
:1025D000CE01CF960E94490C69E372E016C08832A2
:1025E00009F494C08B3391F764E172E0CE01CF9689
:1025F0000E94490C6EE272E008C064E172E0CE0114
:10260000CF960E94490C67E172E0CE0101960E94CC
:10261000490CF301308041808A818F9389818F93A7
:1026200021968FAD21978F938FAD8F931F930F932B
:102630004F923F92BF92AF921F925F929F928F9262
:102640000E94890A0FB6F894DEBF0FBECDBF8091FD
:102650007B03882309F449C00E94900860E080E071
:102660000E945C0861E472E087E894E00E94810ABD
:10267000632D742D87E894E00E94810A63EB72E079
:1026800087E894E00E94810A4AE050E0B80187E8B8
:1026900094E00E94610969E472E087E894E00E9496
:1026A000810A25964EAD5FAD259721966EAD7FAD23
:1026B000219787E894E00E94ED0261E080E00E94AB
:1026C0005C084D815E8169817A8187E894E00E948F
:1026D000ED026EE472E087E894E00E94810A60ED0A
:1026E00077E080E090E00E944C0789819A81009712
:1026F00011F00E941A1A21968EAD9FAD2197009776
:1027000011F00E941A1A0F5F1F4F41CF64E172E06F
:10271000CE01CF960E94490C6FE172E076CF64E162
:1027200072E0CE01CF960E94490C67E272E06DCF55
:1027300068EE73E080E090E00E944C078BA19CA1C2
:102740000E94A30640E06CEC8BA19CA10E94500665
:102750004A8D64E48BA19CA10E9450068E8D882333
:1027600069F1ED8D8F8D882309F443C18A8D811124
:1027700040C18FB7F89480907D0390907E03A09025
:102780007F03B09080038FBF8BA19CA10E94FD05A9
:102790008130A1F02FB7F89480917D0390917E0352
:1027A000A0917F03B09180032FBF88199909AA09CE
:1027B000BB098E3E9240A105B10530F36EEE72E08A
:1027C00080E090E00E944C0710E000E0AE014F5F17
:1027D0005F4F5A0187E5282E82E0382E9DE6692E4C
:1027E00091E0792E2EE7822E24E0922EC701885E9A
:1027F0009E4F62969FAF8EAF629789A18017110698
:1028000009F00CF466C160960FAF6097402FBE01CF
:10281000615C7F4FCE014A960E94F00781110DC185
:10282000412C512CAEEFEA2EB2ECFB2E60964FAD50
:102830006097BE01615C7F4FCE014A960E94F0070F
:102840001F921F9227968FAD27971F928F932696E0
:102850008FAD26971F928F9325968FAD25971F9248
:102860008F9324968FAD24971F928F9323968FADCD
:1028700023971F928F9322968FAD22971F928F934B
:1028800021968FAD21971F928F938FAD1F928F93BB
:102890003F922F92BF92AF920E94701BFF92EF92D5
:1028A0005F924F92BF92AF921F930F93DF92CF929E
:1028B0007F926F921F9284E08F939F928F920E94DB
:1028C000890A0FB6F894DEBF0FBECDBF1F921F92CC
:1028D00027968FAD27971F928F9326968FAD2697B9
:1028E0001F928F9325968FAD25971F928F932496D5
:1028F0008FAD24971F928F9323968FAD23971F92AE
:102900008F9322968FAD22971F928F9321968FAD32
:1029100021971F928F938FAD1F928F9381E892E042
:102920009F938F93BF92AF920E94701B0FB6F89443
:10293000DEBF0FBECDBF80917B03882309F456C054
:102940000E94900860E080E00E945C0864EA72E007
:1029500087E894E00E94810A6296EEADFFAD62972F
:102960006081718187E894E00E94810A63EB72E0E4
:1029700087E894E00E94810A4AE050E0B80187E8C5
:1029800094E00E9461096DEA72E087E894E00E9499
:10299000810A61E080E00E945C08B50187E894E06C
:1029A0000E94810A62E080E00E945C0865EB72E0B0
:1029B00087E894E00E94810A22E0442D552D6E2D77
:1029C0007F2D87E894E00E949B096FED87E894E0F3
:1029D0000E94000963EC72E087E894E00E94810A9B
:1029E00060ED77E080E090E00E944C070F5F1F4FA2
:1029F00004CFE9508EEE92E0E33038F4F0E0EE0FD1
:102A0000FF1FE25FFE4F808191814C01990FAA0860
:102A1000BB088B8D882321F060E08C8D0E94EB0138
:102A2000C501B4010E948D028B8D882309F4C6CEA6
:102A300061E08C8D0E94EB01C1CEA501BE01615CFD
:102A40007F4FCE014A960E94DB06882309F4E8CE28
:102A50006A8170E0762F6627770F770F770F2981CD
:102A600098E0299F90011124262B372B8FAD8031C0
:102A7000E1F468856623C9F070E08F81FB01E81BF3
:102A8000F109CF019695982F8827979587950E94F1
:102A90001618CB018097B901E3E0660F771FEA951E
:102AA000E1F760789C01260F371F2138F4EE3F07CD
:102AB0000CF4B6CEB901330F880B990B0E94AC16FB
:102AC00020E030E040E05CE30E940B172B017C012A
:102AD000ADCE80E2E82E81E0F82E9CE1C92E91E097
:102AE000D92E24E0322E0EE714E037E5A32E32E093
:102AF000B32E44E3842E42E0942EF701708041808F
:102B0000F2E0EF0EF11CF60160805180F2E0CF0E92
:102B1000D11C4F927F925F926F9228E932E03F93EF
:102B20002F931F923F921F930F930E94890A0FB613
:102B3000F894DEBF0FBECDBF80917B03882381F167
:102B40000E94900860E080E00E945C0865EC72E002
:102B500087E894E00E94810A662D752D87E894E04D
:102B60000E94810A6EEC72E087E894E00E94810A7C
:102B700061E080E00E945C0865ED72E087E894E027
:102B80000E94810A4AE050E0672D742D87E894E0A6
:102B90000E94610960EC72E087E894E00E94810A7B
:102BA00068EE73E080E090E00E944C0761E0872DC2
:102BB0000E94370261E0872D0E94EB0168EE73E00E
:102BC00080E090E00E944C074F927F925F926F925C
:102BD000E8E7F2E0FF93EF931F923F921F930F936A
:102BE0000E94890A0FB6F894DEBF0FBECDBF809158
:102BF0007B03882351F061E08AE00E945C086DED60
:102C000072E087E894E00E94810A60E0872D0E94CC
:102C1000EB0160ED77E080E090E00E944C074F927E
:102C20007F925F926F92BF92AF921F923F921F93DB
:102C30000F930E94890A0FB6F894DEBF0FBECDBF76
:102C400080917B03882351F061E08AE00E945C0858
:102C500060EE72E087E894E00E94810A61E0872DCF
:102C60000E94EB0160ED77E080E090E00E944C076D
:102C70004F927F925F926F929F928F921F923F929C
:102C80001F930F930E94890A0FB6F894DEBF0FBE00
:102C9000CDBF80917B03882351F061E08AE00E94E0
:102CA0005C0864EE72E087E894E00E94810A60EDBF
:102CB00077E080E090E00E944C07F4E2EF16F1E04C
:102CC000FF0609F01ACF61E08DE00E94EB0186EB70
:102CD00092E09F938F931F9286E08F938EE794E00C
:102CE0009F938F930E94890A0F900F900F900F90DF
:102CF0000F900F9080917B038823D9F00E94900859
:102D000060E081E00E945C086DEE72E087E894E08C
:102D10000E94810A68EB7BE080E090E00E944C0713
:102D20000E9490081092920460E087E894E00E946C
:102D3000D00500E010E001151105E9F30E945703EA
:102D40008823C9F30E940000F6CF0E94E71608F41A
:102D500081E00895E89409C097FB3EF49095809532
:102D6000709561957F4F8F4F9F4F9923A9F0F92F51
:102D700096E9BB279395F695879577956795B795CF
:102D8000F111F8CFFAF4BB0F11F460FF1BC06F5FB5
:102D90007F4F8F4F9F4F16C0882311F096E911C0C7
:102DA000772321F09EE8872F762F05C0662371F0E8
:102DB00096E8862F70E060E02AF09A95660F771FFC
:102DC000881FDAF7880F9695879597F90895990FD8
:102DD0000008550FAA0BE0E8FEEF16161706E807E5
:102DE000F907C0F012161306E407F50798F0621B06
:102DF000730B840B950B39F40A2661F0232B242BDB
:102E0000252B21F408950A2609F4A140A6958FEFF9
:102E1000811D811D08950E941E170C948F170E941A
:102E2000811738F00E94881720F0952311F00C9438
:102E300078170C947E1711240C94C3170E94A017C6
:102E400070F3959FC1F3950F50E0551F629FF001FD
:102E5000729FBB27F00DB11D639FAA27F00DB11D16
:102E6000AA1F649F6627B00DA11D661F829F22279F
:102E7000B00DA11D621F739FB00DA11D621F839F26
:102E8000A00D611D221F749F3327A00D611D231FFC
:102E9000849F600D211D822F762F6A2F11249F574A
:102EA00050409AF0F1F088234AF0EE0FFF1FBB1F4D
:102EB000661F771F881F91505040A9F79E3F51050C
:102EC00080F00C9478170C94C3175F3FE4F3983E9E
:102ED000D4F3869577956795B795F795E7959F5FB6
:102EE000C1F7FE2B880F911D9695879597F9089548
:102EF00097F99F6780E870E060E008959FEF80ECAD
:102F0000089500240A94161617061806090608954F
:102F100000240A9412161306140605060895092EB5
:102F20000394000C11F4882352F0BB0F40F4BF2B24
:102F300011F460FF04C06F5F7F4F8F4F9F4F089564
:102F400057FD9058440F551F59F05F3F71F047955A
:102F5000880F97FB991F61F09F3F79F0879508953F
:102F6000121613061406551FF2CF4695F1DF08C05E
:102F7000161617061806991FF1CF8695710561057B
:102F800008940895E894BB2766277727CB0197F923
:102F90000895F999FECF92BD81BDF89A992780B521
:102FA0000895262FF999FECF1FBA92BD81BD20BD8D
:102FB0000FB6F894FA9AF99A0FBE019608952F92D7
:102FC0003F924F925F926F927F928F929F92AF92B9
:102FD000BF92CF92DF92EF92FF920F931F93CF9306
:102FE000DF93CDB7DEB7CA1BDB0B0FB6F894DEBF9D
:102FF0000FBECDBF09942A88398848885F846E84C3
:103000007D848C849B84AA84B984C884DF80EE800C
:10301000FD800C811B81AA81B981CE0FD11D0FB615
:10302000F894DEBF0FBECDBFED01089597FB072ECC
:1030300016F4009407D077FD09D00E944C1807FCC5
:1030400005D03EF4909581959F4F089570956195B8
:103050007F4F0895A1E21A2EAA1BBB1BFD010DC0D4
:10306000AA1FBB1FEE1FFF1FA217B307E407F50738
:1030700020F0A21BB30BE40BF50B661F771F881F14
:10308000991F1A9469F760957095809590959B01AA
:10309000AC01BD01CF010895AA1BBB1B51E107C0C4
:1030A000AA1FBB1FA617B70710F0A61BB70B881FD8
:1030B000991F5A95A9F780959095BC01CD01089567
:1030C000EE0FFF1F0590F491E02D09945058BB2797
:1030D000AA270E947E180C948F170E94811738F03F
:1030E0000E94881720F039F49F3F19F426F40C94BD
:1030F0007E170EF4E095E7FB0C947817E92F0E94F9
:10310000A01758F3BA17620773078407950720F0D2
:1031100079F4A6F50C94C2170EF4E0950B2EBA2F95
:10312000A02D0B01B90190010C01CA01A0011124CD
:10313000FF27591B99F0593F50F4503E68F11A1679
:10314000F040A22F232F342F4427585FF3CF46950A
:1031500037952795A795F0405395C9F77EF41F162C
:10316000BA0B620B730B840BBAF09150A1F0FF0FF6
:10317000BB1F661F771F881FC2F70EC0BA0F621FE2
:10318000731F841F48F4879577956795B795F795D2
:103190009E3F08F0B0CF9395880F08F09927EE0F67
:1031A0009795879508950E94E7180C948F170E94B1
:1031B000881758F00E94811740F029F45F3F29F0EA
:1031C0000C94781751110C94C3170C947E170E941D
:1031D000A01768F39923B1F3552391F3951B550B71
:1031E000BB27AA2762177307840738F09F5F5F4FDA
:1031F000220F331F441FAA1FA9F335D00E2E3AF019
:10320000E0E832D091505040E695001CCAF72BD030
:10321000FE2F29D0660F771F881FBB1F2617370781
:103220004807AB07B0E809F0BB0B802DBF01FF27B3
:1032300093585F4F3AF09E3F510578F00C94781701
:103240000C94C3175F3FE4F3983ED4F386957795CB
:103250006795B795F7959F5FC9F7880F911D96956C
:10326000879597F90895E1E0660F771F881FBB1FC8
:10327000621773078407BA0720F0621B730B840B75
:10328000BA0BEE1F88F7E09508950E94A81788F002
:103290009F5798F0B92F9927B751B0F0E1F0660F1A
:1032A000771F881F991F1AF0BA95C9F714C0B1305B
:1032B00091F00E94C217B1E008950C94C217672FD5
:1032C000782F8827B85F39F0B93FCCF3869577958A
:1032D0006795B395D9F73EF4909580957095619573
:1032E0007F4F8F4F9F4F08950E94E71608F48FEF8E
:1032F00008950E94E716880B990B08950F931F936A
:10330000CF93DF938230910510F482E090E0E0915A
:103310009504F091960430E020E0B0E0A0E0309712
:1033200099F42115310509F44AC0281B390B2430C2
:103330003105D8F58A819B816115710589F1FB0101
:1033400093838283FE0111C04081518102811381E8
:1033500048175907E0F04817590799F4109761F09A
:1033600012960C93129713961C933296CF01DF910D
:10337000CF911F910F910895009395041093960497
:10338000F4CF2115310551F04217530738F0A90148
:10339000DB019A01BD01DF01F801C1CFEF01F9CFD7
:1033A0009093960480939504CDCFFE01E20FF31F16
:1033B000819391932250310939832883D7CF20916B
:1033C000930430919404232B41F420910201309115
:1033D00003013093940420939304209100013091D1
:1033E00001012115310541F42DB73EB7409104018B
:1033F00050910501241B350BE0919304F091940446
:10340000E217F307A0F42E1B3F0B2817390778F0BB
:10341000AC014E5F5F4F2417350748F04E0F5F1F1A
:103420005093940440939304819391939FCFF0E041
:10343000E0E09CCFCF93DF930097E9F0FC01329757
:1034400013821282A0919504B0919604ED0130E0B0
:1034500020E01097A1F420813181820F931F2091E9
:103460009304309194042817390709F061C0F09350
:103470009404E0939304DF91CF910895EA01CE176D
:10348000DF07E8F54A815B819E0141155105B1F7DF
:10349000E901FB83EA8349915991C40FD51FEC17C9
:1034A000FD0761F4808191810296840F951FE901E7
:1034B00099838883828193819B838A83F0E0E0E013
:1034C00012968D919C9113970097B9F52D913C918F
:1034D0001197CD010296820F931F20919304309192
:1034E00094042817390739F6309751F5109296044D
:1034F00010929504B0939404A0939304BCCFD3830B
:10350000C28340815181840F951FC817D90761F488
:103510004E5F5F4F88819981480F591F51834083C7
:103520008A819B81938382832115310509F0B0CF75
:10353000F0939604E09395049ECFFD01DC01C0CF8B
:1035400013821282D7CFB0E0A0E0E9EAFAE10C944E
:10355000E1178C01009751F4CB010E947E198C0178
:10356000C801CDB7DEB7E0E10C94FD17FC01E60F12
:10357000F71F9C0122503109E217F30708F49DC0A0
:10358000D901CD91DC911197C617D70798F0C530B6
:10359000D10530F3CE0104978617970708F3C61BB1
:1035A000D70B2297C193D1936D937C93CF010E9447
:1035B0001A1AD6CF5B01AC1ABD0A4C018C0E9D1EA7
:1035C000A0919504B0919604512C412CF12CE12C42
:1035D000109731F580919304909194048815990582
:1035E00009F05CC04616570608F058C080910001EB
:1035F00090910101009741F48DB79EB7409104016D
:1036000050910501841B950BE817F90708F055C088
:10361000F0939404E0939304F90171836083A0CF45
:103620008D919C91119712966C90129713967C90A5
:103630001397A815B90559F56C0142E0C40ED11CC9
:10364000CA14DB0420F1AC014A195B09DA011296B5
:10365000159780F06282738251834083D9016D9304
:103660007C93E114F10471F0D7011396FC93EE936F
:10367000129776CF22968C0F9D1FF901918380833C
:10368000F301EFCFF0939604E093950469CF4816C9
:10369000590608F42C017D01D3019ACFCB010E9479
:1036A0007E197C01009749F0AE01B8010E94601BB1
:1036B000C8010E941A1A870153CF10E000E050CFD2
:1036C000FB01DC0102C001900D9241505040D8F73F
:1036D0000895FB01DC0101900D920020E1F70895AF
:1036E000AEE0B0E0E6E7FBE10C94ED170D891E8932
:1036F00086E08C831A8309838FEF9FE79E838D83F7
:10370000AE01475E5F4F6F89788DCE0101960E94B2
:10371000931B2F813885020F131FF80110822E96FC
:10372000E4E00C940918ABE0B0E0E9E9FBE10C94AB
:10373000DF177C013B018A01FC011782168283811D
:1037400081FFC8C1CE0101965C01F7019381F301AD
:1037500093FD859193FF81913F01882309F453C123
:10376000853239F493FD859193FF81913F01853234
:1037700029F4B70190E00E94831DE7CF912C212C02
:10378000312CFFE1F31538F08B3211F190F48032D7
:1037900009F1833229F137FC3CC020ED280F2A3093
:1037A00050F536FE20C08AE0989E200D1124922EFE
:1037B00006C08D3291F0803371F7689430F8F301D0
:1037C00093FD859193FF81913F018111DACF21C053
:1037D000689431F8689432F8F2CF689433F8EFCFF8
:1037E000689434F8ECCFEAE02E9E200D1124222EAE
:1037F000689435F8E4CF8E3229F436FC04C168941D
:1038000036F8DDCF8C3619F4689437F8D8CF88367F
:10381000B1F2982F9F7D95549330E0F08336A1F15B
:103820008337C1F1833509F063C02801F2E04F0E00
:10383000511CF801C080D180692D70E036FC02C0B7
:103840006FEF7FEFC6010E946D1D4C01689437F841
:1038500082010AC00C5F1F4FFFE3F9838824839421
:10386000912C6501E89437F833FE2DC0522C811459
:10387000910471F5552009F468CFB70180E290E01A
:103880000E94831D5A94F6CFF801808189830E5FD0
:103890001F4FE4CF2801F2E04F0E511CF801C08009
:1038A000D180692D70E036FC02C06FEF7FEFC6015A
:1038B0000E94781D4C018201D5CFB70180E290E0D3
:1038C0000E94831D2A942814190409F0B0F7CECF62
:1038D000F60137FC859137FE81916F01B70190E0C9
:1038E0000E94831D51105A94F1E08F1A9108BFCFA6
:1038F000843619F0893609F077C0F80137FE6BC0BD
:1039000060817181828193810C5F1F4FF32DFF765F
:103910003F2E97FF09C090958095709561957F4FD8
:103920008F4F9F4F689437F82AE030E0A5010E943E
:10393000B31DC82ECA188C2C432C36FE0CC0E8943C
:1039400040F8C91440F434FE05C032FC03C0F32D26
:10395000FE7E4F2E892C44FE95C0FE01EC0DF11D1C
:103960008081803309F087C0242D297E422E842D4A
:103970008870582E43FC95C040FE8FC09C2C82144A
:1039800018F42C0C922C981844FE91C0B70180E3D7
:1039900090E00E94831D42FE09C088E790E041FE4E
:1039A00002C088E590E0B7010E94831DC91408F4A5
:1039B0008AC0CA94D12C9FEFC91AD90ACA0CDB1C41
:1039C000F60182916F01B70190E00E94831DAC1453
:1039D000BD04B1F74FCF60817181072E000C880BB9
:1039E000990B0E5F1F4F92CFD32CE894D4F82AE0A6
:1039F00030E0853739F1232D297FD22E8F3601F122
:103A000048F48835A9F0F701868197812B96E2E189
:103A10000C94FB17803749F08837A9F7D4FE02C011
:103A20006894D2F820E130E00DC06894D4F8F6CF65
:103A300034FE03C0822F8660D82E20E132E002C01F
:103A400028E030E0F801D7FE0FC0608171818281EB
:103A500093810C5F1F4FA5010E94B31DC82ECA1889
:103A60003D2CE89437F867CF6081718190E080E069
:103A70000E5F1F4FF0CF42FC02C0839478CF839437
:103A8000839475CF842D867809F471CFF6CFB70172
:103A900080E290E00E94831D83948214C0F3512C35
:103AA00073CF522C5818821408F46ECFF8CF842D9F
:103AB000867809F47BCF8BE241FE80E247FC8DE201
:103AC000B70190E071CFB70180E390E00E94831DC1
:103AD0009A946CCF8FEF9FEF99CFFC0105906150C6
:103AE00070400110D8F7809590958E0F9F1F089514
:103AF000FC016150704001900110D8F780959095BD
:103B00008E0F9F1F08950F931F93CF93DF93182F4E
:103B1000092FEB018B8181FD09C01FEF0FEF812F72
:103B2000902FDF91CF911F910F91089582FF14C0C4
:103B30002E813F818C819D81281739073CF4E881D3
:103B4000F981CF0101969983888310838E819F81AB
:103B500001969F838E83E3CFE885F985812F0995B0
:103B6000892BA1F3DACFFA01AA27283051F12031AD
:103B700081F1E8946F936E7F6E5F7F4F8F4F9F4F01
:103B8000AF4FB1E03ED0B4E03CD0670F781F891F43
:103B90009A1FA11D680F791F8A1F911DA11D6A0F11
:103BA000711D811D911DA11D20D009F468943F91C4
:103BB0002AE0269F11243019305D3193DEF6CF01C3
:103BC0000895462F4770405D4193B3E00FD0C9F789
:103BD000F6CF462F4F70405D4A3318F0495D31FDF6
:103BE0004052419302D0A9F7EACFB4E0A695979549
:103BF000879577956795BA95C9F70097610571051F
:103C000008959B01AC010A2E069457954795379568
:103C10002795BA95C9F7620F731F841F951FA01DC2
:063C20000895F894FFCFA7
:103C260000009704800000004000140054005E006D
:103C3600BC0077010E001200FF02020305030A030F
:103C460005000600000000008D03ED021A03DA03EA
:103C56004B0329033D0300000000A1057405E3059D
:103C66004A056D055A054B05000000000009ED02E6
:103C7600E305FA036E616E00696E66006F76660094
:103C8600307800306200540046004645574E545680
:103C9600006F6666000D0A0048656C6C6F2C204844
:103CA6006F6D656272657765722100596F75722056
:103CB60042726577506920646973706C6179007728
:103CC6006F726B732E00436C656172696E67204577
:103CD6004550524F4D2E00454550524F4D20636C76
:103CE60065617265642E00436865636B696E672063
:103CF6004F6E6557697265206F6E00506172617311
:103D06006974696320706F776572206973006F6EDE
:103D160020006F66662000666F722070696E200054
:103D26004465746563746564200020646576696320
:103D360065732E00612000445331385332300044FD
:103D46005331384232300044533138323200445312
:103D56003138323500616E2000756E6B6E6F776E8E
:103D6600004465766963652000206973200020643D
:103D760065766963652E00253032583A253032580B
:103D86003A253032583A253032583A253032583AA8
:103D9600253032583A253032583A25303258256384
:103DA60000253032582530325825303258253032E9
:103DB6005825303258253032582530325825303281
:103DC6005825630053656E736F723A20002C20618C
:103DD6006464723A0054656D7065726174757265DB
:103DE6003A2000430054657374696E6720002072A0
:103DF600656C6179006F6E2070696E20004F6E00F1
:103E06004F666600436F6D706C657465005465732C
:103E160074696E6720636F6D706C6574652E004102
:103E260030004134004865617400436F6F6C0000D8
:00000001FF
