:100000000C94B6010C94DE010C94DE010C94DE011C
:100010000C94DE010C94DE010C94DE010C94DE01E4
:100020000C94DE010C94DE010C94DE010C94DE01D4
:100030000C94DE010C94DE010C94DE010C94DE01C4
:100040000C948E0E0C94DE010C94FE0E0C94D80EC3
:100050000C94DE010C94DE010C94DE010C94DE01A4
:100060000C94300F0C94DE010000000023002600E9
:10007000290053656E736F723A0925643A25640945
:10008000416464726573733A2025783A25783A257D
:10009000783A25783A25783A25783A25783A2578B5
:1000A0000954656D70657261747572653A202544F6
:1000B000C2B0430A004465766963652025643A2529
:1000C00064206973202573206465766963652E0A50
:1000D00000446574656374656420256420646576F6
:1000E00069636573206F6E2070696E2025642E0A27
:1000F0000050617261736974696320706F77657213
:1001000020697320257320666F7220746865204F04
:100110006E655769726520627573206F6E20706915
:100120006E2025642E0A000A436865636B696E675A
:1001300020256420666F72204F6E655769726520B6
:10014000646576696365732E0A0052656C61792077
:1001500074657374206F6E2070696E20256420634F
:100160006F6D706C6574652E0A005475726E696EE1
:10017000672072656C6179206F6E2070696E202532
:1001800064206F66662E0A005475726E696E672071
:1001900072656C6179206F6E2070696E2025642015
:1001A0006F6E2E0A000A54657374696E672072655B
:1001B0006C61792070696E2025642E0A00005EBC97
:1001C000E2613FDD83C29C7E20A3FD1F41009D2391
:1001D000BE46DB65F88C11AF32CA57E974536574BB
:1001E00074696E67204C434420646973706C617954
:1001F0002061742025582E0A004932432073636120
:100200006E20636F6D706C6574652E0A004E6F20F2
:10021000493243206465766963657320666F756E45
:10022000642E0A00556E6B6E6F776E206572726F6A
:10023000722066726F6D204932432064657669636F
:100240006520666F756E64206174206164647265F8
:1002500073732025582E0A0049324320646576695D
:10026000636520666F756E642061742061646472DA
:100270006573732025582E0A000A5363616E6E69F8
:100280006E6720493243206275732E0A004545503F
:10029000524F4D20636C65617220636F6D706C65A9
:1002A00074652E0A000A436C656172696E672045A9
:1002B0004550524F4D2E0A000A4272657750692010
:1002C00046616D696C792041726475696E6F205565
:1002D0006E6F205465737420636F6D706C65746508
:1002E0002E0A000A4272657750692046616D696C7A
:1002F000792041726475696E6F20556E6F20546568
:10030000737420626567696E6E696E672E0A0000FD
:10031000000000240027002A00000000002500281B
:10032000002B000404040404040404020202020278
:1003300002030303030303010204081020408001A9
:100340000204081020010204081020000000080028
:100350000201000003040700000000000000006626
:10036000616C73650074727565004F1011241FBEB7
:10037000CFEFD8E0DEBFCDBF23E0AEEDB1E001C0EE
:100380001D92A735B207E1F711E0A0E0B1E0EAEB7A
:10039000FEE202C005900D92AE3DB107D9F711E023
:1003A000C6EBD1E004C02197FE010E94BD14C53BFD
:1003B000D107C9F70E9494100C945B170C940000AD
:1003C00090E0FC01E55BFC4F2491FC01E95CFC4FF3
:1003D0003491FC01ED5DFC4FE491EE23C9F0222342
:1003E00039F0233001F1A8F4213019F1223029F13C
:1003F000F0E0EE0FFF1FE75EFC4FA591B4918FB7C1
:10040000F894EC91611126C030953E233C938FBF48
:1004100008952730A9F02830C9F0243049F7809199
:1004200080008F7D03C0809180008F778093800053
:10043000DFCF84B58F7784BDDBCF84B58F7DFBCFD5
:100440008091B0008F778093B000D2CF8091B000C0
:100450008F7DF9CF3E2BDACFCF93DF9390E0FC0175
:10046000E95CFC4F24918D5D9C4FFC0184918823B5
:10047000D1F090E0880F991FFC01E15FFC4FA5913E
:10048000B491FC01E75EFC4FC591D49161110EC09F
:100490009FB7F8948C91E22FE0958E238C9328815E
:1004A000E223E8839FBFDF91CF9108958FB7F8943F
:1004B000EC91E22BEC938FBFF6CF3FB7F89480918D
:1004C0004D0290914E02A0914F02B091500226B57C
:1004D000A89B05C02F3F19F00196A11DB11D3FBF7C
:1004E000BA2FA92F982F8827BC01CD01620F711D4B
:1004F000811D911D42E0660F771F881F991F4A9545
:10050000D1F708958F929F92AF92BF92CF92DF92D0
:10051000EF92FF926B017C010E945D024B015C0136
:10052000C114D104E104F104B9F00E945D0268191C
:1005300079098A099B09683E73408105910580F31A
:1005400021E0C21AD108E108F10888EE880E83E0A4
:10055000981EA11CB11CE4CFFF90EF90DF90CF90CC
:10056000BF90AF909F908F90089508950895DC01FB
:10057000ED91FC910190F081E02D0994EF92FF92B2
:100580000F931F93CF93DF938C017B01D0E0C0E0EA
:10059000F701EC0FFD1F6491662361F0D801ED9126
:1005A000FC910190F081E02DC8010995892B11F093
:1005B0002196EECFCE01DF91CF911F910F91FF9049
:1005C000EF900895AF92BF92CF92DF92EF92FF9299
:1005D0000F931F93CF93DF936C017B018B01040F6B
:1005E000151FEB015E01AE18BF08C017D10759F007
:1005F0006991D601ED91FC910190F081E02DC60149
:100600000995892B79F7C501DF91CF911F910F9142
:10061000FF90EF90DF90CF90BF90AF900895FC01D6
:10062000538D448D252F30E0842F90E0821B930B57
:10063000541710F0CF96089501970895FC01918DFD
:10064000828D981761F0A28DAE0FBF2FB11D5D9600
:100650008C91928D9F5F9F73928F90E008958FEFA2
:100660009FEF0895FC01918D828D981731F0828D56
:10067000E80FF11D858D90E008958FEF9FEF0895AD
:10068000FC01918D228D892F90E0805C9F4F821B11
:1006900091098F739927089581EA92E00E9440039F
:1006A00021E0892B09F420E0822F089580E090E07A
:1006B000892B29F00E944C0381110C9400000895AD
:1006C000FC01A48DA80FB92FB11DA35ABF4F2C91C7
:1006D000848D90E001968F739927848FA689B789BE
:1006E0002C93A089B1898C91837080648C93938DB5
:1006F000848D981306C00288F389E02D80818F7D58
:1007000080830895EF92FF920F931F93CF93DF930F
:10071000EC0181E0888F9B8D8C8D98131AC0E8893D
:10072000F989808185FF15C09FB7F894EE89FF890C
:100730006083E889F98980818370806480839FBFAA
:1007400081E090E0DF91CF911F910F91FF90EF90AA
:100750000895F62E0B8D10E00F5F1F4F0F731127BA
:10076000E02E8C8D8E110CC00FB607FCFACFE889F5
:10077000F989808185FFF5CFCE010E946003F1CF1A
:10078000EB8DEC0FFD2FF11DE35AFF4FF0829FB769
:10079000F8940B8FEA89FB8980818062CFCFCF9359
:1007A000DF93EC01888D8823B9F0AA89BB89E88999
:1007B000F9898C9185FD03C0808186FD0DC00FB63F
:1007C00007FCF7CF8C9185FFF2CF808185FFEDCFBD
:1007D000CE010E946003E9CFDF91CF910895089583
:1007E00020911F02260F3327331F21323105ECF4ED
:1007F00020917702FC0190E080E0243069F082E0F3
:100800000895A0911F022191AC0141505E4FA40FA9
:10081000B52FB11D2C930196861798F380911F0276
:10082000680F60931F0280E0089581E00895ECEB6B
:10083000F0E080818A7B808360E082E10E94E001B9
:1008400060E083E10C94E0011092770281E08093F4
:1008500076021092510261E082E10E94E00161E0C3
:1008600083E10E94E001E9EBF0E080818E7F8083EC
:1008700080818D7F808388E48093B80085E48093B5
:10088000BC000895CF93DF9391E09093FE018823FD
:1008900061F0C091B800D091BA000E9417040E9484
:1008A0002404D093BA00C093B800DF91CF9108958B
:1008B000CF92DF92EF92FF920F931F93CF93DF932C
:1008C000D091A00281E0D13208F09CC0C0919F027B
:1008D0000E945D026B017C018091770281116CC0E6
:1008E00082E08093770281E0809376028FEF80939D
:1008F000750210927402D0937302AFE7B2E0E3E5A1
:10090000F2E080E0D8138DC0109252028091520222
:10091000CC0FC82BC093520280915102813009F054
:1009200084C0109251020E945D026B017C01809193
:1009300052028093BB008091790290917A02A0913B
:100940007B02B0917C02892B8A2B8B2BA1F00E9419
:100950005D020091790210917A0220917B02309120
:100960007C026C197D098E099F0906171707280755
:10097000390708F442C08091BC0083FDD8CF85ECD4
:100980008093BC000E945D026B017C018091770224
:10099000823009F44CC0809175028F3F09F469C020
:1009A00080917502803209F466C0809175028033AF
:1009B00009F463C084E026C08091790290917A02A4
:1009C000A0917B02B0917C02892B8A2B8B2B09F49E
:1009D00083CF0E945D020091790210917A022091EA
:1009E0007B0230917C026C197D098E099F090617E4
:1009F00017072807390708F06FCF809178020E9407
:100A0000420485E010927E021092A00210927D02B4
:100A1000DF91CF911F910F91FF90EF90DF90CF90DA
:100A200008959D9191938F5F6DCF85EEA9CF8091B1
:100A3000790290917A02A0917B02B0917C02892B7D
:100A40008A2B8B2B09F4A2CF0E945D0200917902C0
:100A500010917A0220917B0230917C026C197D0901
:100A60008E099F09061717072807390708F08ECF48
:100A7000C4CF80E0C7CF82E0C5CF83E0C3CF089565
:100A8000E091470280914602E81730F4F0E0E2522C
:100A9000FE4F808190E008958FEF9FEF0895909131
:100AA0004702809146022FEF3FEF981748F4E92F55
:100AB000F0E0E252FE4F208130E09F5F90934702CA
:100AC000C90108958091460290914702891B990BB4
:100AD0000895CF92DF92EF92FF920F931F93CF93DF
:100AE000DF937C01CB018A0120917D02222389F0D2
:100AF000EB016B01C40ED51ECC15DD0569F06991C3
:100B0000D701ED91FC910190F081E02DC70109958D
:100B1000F3CF642F0E94F003C801DF91CF911F91A2
:100B20000F91FF90EF90DF90CF900895CF93DF93D8
:100B30001F92CDB7DEB7698320917D022223F9F0A1
:100B40002091A002203258F021E030E0FC013383F4
:100B5000228390E080E00F90DF91CF910895809103
:100B60007E02E82FF0E0E158FD4F998190838F5F7E
:100B700080937E028093A00281E090E0ECCF61E060
:100B8000CE0101960E94F003F7CFFC01248131E0F1
:100B900030937D0220939F0210927E021092A00259
:100BA0008385682B8EE393E00E9496050C9458048D
:100BB00090E080E00895DC0180E0615090F09D912C
:100BC0009827E92FEF70F0E0E354FE4F2491E92FCE
:100BD000E295EF70F0E0E353FE4FE491822F8E2711
:100BE000ECCF0895DC012C911196ED91FC91F894D5
:100BF0008181822B81839281322F3095932392833E
:100C000087E090E00197F1F781818323818383E27C
:100C100090E00197F1F790817894EFECF0E0319754
:100C2000F1F7922381E009F480E00895FC019081BE
:100C30000180F281E02D292F209560FF14C0F894E7
:100C40008281822382838181892B8183A3E2B0E028
:100C50001197F1F78281982B9283789487ED90E039
:100C60000197F1F70895F89482818223828381812C
:100C7000892B8183AFEFB0E01197F1F78281982B38
:100C8000928378948FE090E0EBCFDF92EF92FF9227
:100C90000F931F93CF93DF93EC01D62EE42E08E041
:100CA00010E0FF24F39461E08D2D8F2109F460E0C2
:100CB000CE010E941606FF0C01501109A1F7E110A8
:100CC00010C0F894E981FA81918188818095892307
:100CD0008183E981FA819281888180958923828349
:100CE0007894DF91CF911F910F91FF90EF90DF905B
:100CF0000895EF92FF920F931F93CF93DF938C0190
:100D00007B0140E065E50E944506E70188E0E80ECA
:100D1000F11C699140E0C8010E944506CE15DF052F
:100D2000C1F7DF91CF911F910F91FF90EF90089540
:100D3000FC0190810180F281E02DF8948181292FBE
:100D400020958223818378943DE743E050E0315041
:100D500029F1DA011197F1F780818923C1F3F89421
:100D60008281822382838181892B81837894ABE77E
:100D7000B7E01197F1F7F894818182238183A3E191
:100D8000B1E01197F1F78081982381E009F080E0CC
:100D90007894E3E6F6E03197F1F7089580E008955E
:100DA0004F925F926F927F928F929F92AF92BF927B
:100DB000CF92DF92EF92FF920F931F93CF93DF9327
:100DC0008C017B01EA01FC01818592850E949806D5
:100DD0008823D9F1B701F801818592850E947906AF
:100DE00040E06EEBF801818592850E9445066E0118
:100DF0005E01F9E0AF0EB11C7E01F801818492849E
:100E000088E0682E712C512C44244394C4010E9424
:100E1000F20581115428440CF1E06F1A7108B1F702
:100E2000F70151927F01AE16BF0639F7F8018185AF
:100E300092850E949806813041F4F60181916F01FC
:100E4000811105C0EE15FF05C1F790E008C068E00C
:100E5000CE010E94DB0591E028852813F6CF892F6B
:100E6000DF91CF911F910F91FF90EF90DF90CF9086
:100E7000BF90AF909F908F907F906F905F904F90BA
:100E80000895BF92CF92DF92EF92FF920F931F933C
:100E9000CF93DF93EC01B62EC72E8D85811105C04F
:100EA000CE010E94980681110EC01B861D861C86ED
:100EB00080E0DF91CF911F910F91FF90EF90DF9035
:100EC000CF90BF90089540E060EFCE010E944506AC
:100ED00001E0E12CD12C11E0CE010E94F205F82EA8
:100EE000CE010E94F20591E0F91218C0813099F507
:100EF0001134D8F2DB86D11002C081E08D878B815E
:100F0000882399F22396EB2DFC2DCF010896299189
:100F10002193E817F907D9F781E0CBCFEE2DF0E068
:100F2000F8120FC08B851817A0F4DE01AE0FBF1F9B
:100F300013968C91802379F4F12C193008F41C87D6
:100F4000D12EEC0FFD1F8381902F909589238383F1
:100F50000AC08113F1CFFE01EE0DF11D8381802BBC
:100F60008383FF24F3946F2DCE010E9416061F5F2A
:100F7000000F11F4E39401E087E08E1508F0ACCF88
:100F8000B7CFDF92EF92FF920F931F93CF93DF9330
:100F90007C018B01D42EDC011996ED91FC91138616
:100FA000158614861286118610861782168215827F
:100FB00014821382C0E0B801F701818592850E94F6
:100FC0004107D82F882329F0DC1629F0CF5FDC16E3
:100FD00090F7D0E009C067E0C8010E94DB05D801A6
:100FE00017969C918913F2CF8D2FDF91CF911F918E
:100FF0000F91FF90EF90DF9008950F931F93CF9381
:101000008C01C62F0E94C5056C2F6460C8010E9428
:10101000C5056C2F6B7FC8010E94C50583EC90E06D
:101020000197F1F7CF911F910F9108950F931F939F
:10103000CF93DF938C01D62FC42F607F642B0E9447
:10104000FD0780E1D89FB00111246C2BC801DF910E
:10105000CF911F910F910C94FD07CF93DF93CDB7E4
:10106000DEB728970FB6F894DEBF0FBECDBF28E0DD
:10107000E6E0F1E0DE01119601900D922A95E1F78C
:10108000FC012085241710F44FEF420F50E0440F6D
:10109000551F21E030E02C0F3D1F420F531FFA0176
:1010A0002081620F606840E028960FB6F894DEBF9A
:1010B0000FBECDBFDF91CF910C94160841E00E9486
:1010C000160881E090E00895FB0101900020E9F707
:1010D0003197AF01461B570BDC01ED91FC9102806B
:1010E000F381E02D09948F929F92AF92BF92EF927D
:1010F000FF920F931F93CF93DF93CDB7DEB7A197E6
:101100000FB6F894DEBF0FBECDBF7C01FA01CB0154
:1011100019A2223008F42AE08E010F5D1F4F822EA3
:10112000912CB12CA12CBF01A50194010E94871420
:10113000F901CA016A300CF5605DD8016E938D012A
:10114000232B242B252B79F790E080E0109721F0BA
:10115000BD01C7010E946408A1960FB6F894DEBFD6
:101160000FBECDBFDF91CF911F910F91FF90EF90F8
:10117000BF90AF909F908F900895695CDECF61150E
:10118000710511F00C94640890E080E008952F92AE
:101190003F924F925F926F927F928F929F92AF9207
:1011A000BF92CF92DF92EF92FF920F931F93CF9354
:1011B000DF9300D000D000D01F92CDB7DEB70E8DE8
:1011C0001F8DC8A0D9A080914A0390914B0380172E
:1011D00091070CF4E0C1E0914F03F0915003309778
:1011E00029F080914D0390914E03099580914C0315
:1011F0008823D9F087E0EDE5F1E0DE01119601905A
:101200000D928A95E1F7FE01E00FF11F6081809158
:101210004D0390914E030E94B70264E471E0809107
:101220004D0390914E030E94BF088E010E5D1F4F2B
:1012300076018FEFE81AF80AF6016491662309F443
:101240009FC11701FFEF2F1A3F0A653209F090C1C5
:10125000F7018491882341F0853261F480914D0338
:1012600090914E030E94B7027101FFEFEF1AFF0A3F
:10127000F101E3CF833771F47801F2E0EF0EF11C56
:10128000F8016081718180914D0390914E030E941D
:10129000BF08FBC0833571F47801F2E0EF0EF11C5A
:1012A000F8016081718180914D0390914E030E94FD
:1012B000BE02EBC0843611F0893601F5E0904D0393
:1012C000F0904E036801F2E0CF0ED11CF80140808F
:1012D0005180052C000C660877082AE0B301A201B2
:1012E00077FEBBC06DE2C7010E94B70244275527B5
:1012F000BA014419550966097709AEC0982F9D7F38
:10130000943409F0AEC0E0904D03F0904E036801B4
:10131000F4E0CF0ED11CF8014080518062807380D0
:10132000A3019201C301B2010E94641567E471E058
:10133000811126C053014201E894B7F82FEF3FEF27
:101340004FE75FE7C501B4010E94641581110CC02D
:101350002FEF3FEF4FE75FE7C501B4010E940A138B
:101360006BE471E0181664F02FEF3FEF4FE75FE496
:10137000C301B2010E945F1518163CF46FE471E0DE
:10138000C7010E94640886016FCF2FEF3FEF4FE740
:101390005FECC301B2010E940A1387FDEFCF20E08A
:1013A00030E0A901C301B2010E940A1387FF08C0FF
:1013B0006DE2C7010E94B70277FA709477F87094D3
:1013C0002AE037ED43EA5BE3C301B2010E94C41493
:1013D0004B015C010E9430152B013C010E940F1350
:1013E0009B01AC01C501B4010E94C3144B015C0117
:1013F0002AE0B301A201C7010E9473086EE2C7018F
:101400000E94B70220E030E040E251E4C501B4019F
:101410000E9470134B015C010E9430152B01712C4E
:10142000612C2AE0B301A201C7010E947308C30125
:10143000B2010E940F139B01AC01C501B4010E94CF
:10144000C31420E030E040E251E40E9470130E9497
:101450003015AB0170E060E02AE0C7010E9473081C
:1014600092CF8837A1F47801F2E0EF0EF11CF80179
:1014700040815181052E000C660B770B20E1809195
:101480004D0390914E030E9473088701EDCE88357D
:1014900049F463E571E080914D0390914E030E9401
:1014A000BF08E1CF823669F47801F2E0EF0EF11C5B
:1014B000F80140815181052E000C660B770B22E06C
:1014C000DECF823449F466E571E080914D0390915E
:1014D0004E030E94BF08E8CF8C3671F4E0904D03B4
:1014E000F0904E036801F4E0CF0ED11CF80140806B
:1014F000518062807380F1CE833669F47801F2E026
:10150000EF0EF11CF801608180914D0390914E0324
:101510000E94B702BACF8437A1F47801F2E0EF0E4F
:10152000F11C80914D0390914E03F801208131818F
:1015300069E571E02130310509F4A9CE6BE571E070
:10154000A6CE843509F090CE7801F2E0EF0EF11CC2
:1015500080914D0390914E03F8012081318165E621
:1015600073E02130310509F4A2CE6FE573E09FCE20
:1015700080914D0390914E030E94B702170174CEE3
:10158000E0915103F0915203309729F080914D037F
:1015900090914E03099527960FB6F894DEBF0FBEC3
:1015A000CDBFDF91CF911F910F91FF90EF90DF9012
:1015B000CF90BF90AF909F908F907F906F905F90F3
:1015C0004F903F902F900895FF920F931F93CF93CA
:1015D000DF93182FF92E9F938F9385EA91E09F93C5
:1015E0008F931F9204E00F93CAE4D3E0DF93CF936D
:1015F0000E94C70861E0812F0E942C0261E0812FC8
:101600000E94E00168EE73E080E090E00E948202B8
:10161000FF921F9388E891E09F938F931F920F93FF
:10162000DF93CF930E94C70860E0812F0E94E00102
:1016300068EE73E080E090E00E948202FF921F93C8
:101640008AE691E09F938F931F920F93DF93CF933E
:101650000E94C7086AEF70E080E090E00E9482027A
:1016600061E0812F0E94E001FF921F938AE491E0E4
:101670009F938F931F920F93DF93CF930E94C7087E
:101680008DB79EB780960FB6F8949EBF0FBE8DBFE4
:10169000DF91CF911F910F91FF9008950F931F93AA
:1016A000CF93DF93EC0188819981009759F02A81CB
:1016B0003B812617370730F081E0DF91CF911F91F2
:1016C0000F9108958B016F5F7F4F0E948E160097D8
:1016D00059F0998388831B830A832C813D81232BB6
:1016E00059F7FC011082E8CF80E0E7CFEF92FF923C
:1016F0000F931F93CF93DF93EC017B01FB010190CC
:101700000020E9F731978F01061B170BB8010E94E3
:101710004E0B28813981811113C02115310519F033
:10172000C9010E940516198218821D821C821B8223
:101730001A82DF91CF911F910F91FF90EF90089542
:101740001D830C83B701C901DF91CF911F910F91C8
:10175000FF90EF900C9454174F925F926F927F928C
:101760008F929F92AF92BF92CF92DF92EF92FF92B1
:101770000F931F93CF93DF93CDB7DEB7EE970FB6DE
:10178000F894DEBF0FBECDBF182F092F9F938F9304
:1017900087E291E09F938F931F9284E08F938AE476
:1017A00093E09F938F930E94C70860E0812F0E946F
:1017B0002C02812F902FFC01E95CFC4FE491E88F13
:1017C000FC01ED5DFC4FE491F0E0EE0FFF1FE859E6
:1017D000FF4F859194919A8F898F1BA21DA21CA205
:1017E0001F8A1E8A1A82CE0148969B878A8718868E
:1017F0001986198289E08C8381E08D838E838F83A3
:101800001AA219A218A21F8E1E8E1D8E1C8E1B8E50
:101810000FB6F894DEBF0FBECDBFFF24F394BE0118
:10182000615D7F4F8A859B850E944107882309F46B
:1018300064C067E0CE018F960E94DB059EA98913E4
:10184000EECF88858F5F88878FA5883229F0F0F5E5
:10185000803111F0823219F789858F5F89878981FC
:1018600081111DC08A859B850E949806BE01615D1D
:101870007F4F8A859B850E94790640E064EB8A85CC
:101880009B850E9445068A859B850E94F205E82E6D
:101890008A859B850E949806E11001C0F9828FA578
:1018A0008031F1F0AE014A5D5F4FBE01615D7F4F57
:1018B000CE0101960E94D006882331F08AA58F338D
:1018C000C1F050F48F31B9F080E00DC08B3321F2BC
:1018D000823409F0A4CFC0CF8F3521F08F37A1F724
:1018E0008CE001C08BE09C81981708F098CF8C8326
:1018F00096CF8AE0F8CF89E0F6CF898181116DC05B
:1019000087E691E00F931F939F938F9381EF90E071
:101910009F938F931F9234E0D32EDF924AE4E42EFC
:1019200043E0F42EFF92EF920E94C7080F931F939B
:1019300088851F928F9381ED90E09F938F931F92E4
:10194000DF92FF92EF920E94C7080FB6F894DEBFB5
:101950000FBECDBFF12CE12C55EBC52E50E0D52E9E
:1019600064E0962E7AE4A72E73E0B72E88858E1554
:101970001F0409F00CF467C04E2DBE01695C7F4F57
:10198000CE0101960E94C1071FA21EA219A618A689
:101990001BA61AA670E060E0CE0186960E944E0B50
:1019A0002EA13FA181111CC02115310519F0C901DB
:1019B0000E9405161FA21EA21BA61AA619A618A6EB
:1019C0008FA96FE771E08232D9F090F46BE671E095
:1019D0008031B1F061E971E013C084E691E092CF0B
:1019E0001BA61AA66EE971E0C9010E945417E8CF40
:1019F00065E771E0883221F068E871E08B3351F7D8
:101A0000CE0186960E94760B8FA18F938EA18F9325
:101A1000FF92EF920F931F93DF92CF921F929F92AC
:101A2000BF92AF920E94C7088EA19FA10FB6F894F3
:101A3000DEBF0FBECDBF009711F00E9405163FEF2D
:101A4000E31AF30A93CF68EE73E080E090E00E941F
:101A500082028A859B850E94980640E06CEC8A850C
:101A60009B850E944506498164E48A859B850E9486
:101A700045068D81882369F1EC818E81882309F4E4
:101A80008AC08981811187C08FB7F894C0904902BC
:101A9000D0904A02E0904B02F0904C028FBF8A85B2
:101AA0009B850E94F2058130A1F02FB7F8948091B8
:101AB000490290914A02A0914B02B0914C022FBF73
:101AC0008C199D09AE09BF098E3E9240A105B10552
:101AD00030F36EEE72E080E090E00E948202F12C22
:101AE000E12CB2E7AB2EB0E0BB2E84E0982E9AE456
:101AF000C92E93E0D92E88858E151F0409F00CF4A9
:101B0000BEC08E2C4E2DBE01615D7F4FCE01019671
:101B10000E94C107811163C0712C612CFEEF5F2E02
:101B2000A2EC4A2E482DBE016A5D7F4FCE01019680
:101B30000E94C1074F925F926F927F928DA51F9274
:101B40008F938CA51F928F938BA51F928F938AA53D
:101B50001F928F9389A51F928F9388A51F928F93B1
:101B60008FA11F928F938EA11F928F93FF92EF925E
:101B70000F931F93BF92AF921F929F92DF92CF92CB
:101B80000E94C7088FEFE81AF80A0FB6F894DEBF74
:101B90000FBECDBFB0CFE9508EEE92E0E33038F407
:101BA000F0E0EE0FFF1FE25FFE4F808191816C013C
:101BB000990FEE08FF088A81882321F060E08B816D
:101BC0000E94E001C701B6010E9482028A81882337
:101BD00009F47FCF61E08B810E94E0017ACFAE01F2
:101BE0004A5D5F4FBE01615D7F4FCE0101960E944D
:101BF000D006882309F490CF6FA170E0762F662776
:101C0000770F770F770F2EA158E0259F90011124B1
:101C1000262B372B8FA58031E1F46DA56623C9F003
:101C200070E08CA5AB01481B5109CA019695982F0D
:101C30008827979587950E947314CB018097B901E7
:101C400053E0660F771F5A95E1F760789C01260FE5
:101C5000371F213854EE35070CF45ECFB901330F2E
:101C6000880B990B0E94111320E030E040E05CE308
:101C70000E947013762E672E582E492E53CFEE9663
:101C80000FB6F894DEBF0FBECDBFDF91CF911F918D
:101C90000F91FF90EF90DF90CF90BF90AF909F900B
:101CA0008F907F906F905F904F90089585ED809317
:101CB000BC008091790290917A02A0917B02B09150
:101CC0007C020796A11DB11D23E0B695A7959795B7
:101CD00087952A95D1F72091BC0024FD03C010926E
:101CE000770208954091790250917A0260917B02C7
:101CF00070917C02452B462B472B69F30097A10579
:101D0000B10541F025E32A95F1F700000197A109FB
:101D1000B109E1CF809178020C9442041F920F9296
:101D20000FB60F9211242F933F938F939F93AF93EE
:101D3000BF938091490290914A02A0914B02B091C9
:101D40004C023091480223E0230F2D3758F50196BD
:101D5000A11DB11D209348028093490290934A022D
:101D6000A0934B02B0934C0280914D0290914E0291
:101D7000A0914F02B09150020196A11DB11D809318
:101D80004D0290934E02A0934F02B0935002BF9128
:101D9000AF919F918F913F912F910F900FBE0F9018
:101DA0001F90189526E8230F0296A11DB11DD2CFD2
:101DB0001F920F920FB60F9211242F933F934F93C0
:101DC0005F936F937F938F939F93AF93BF93EF93A3
:101DD000FF9381EA92E00E946003FF91EF91BF912F
:101DE000AF919F918F917F916F915F914F913F91B3
:101DF0002F910F900FBE0F901F9018951F920F926A
:101E00000FB60F9211242F938F939F93EF93FF930D
:101E1000E091B102F091B2028081E091B702F091BD
:101E2000B80282FD1BC090818091BA028F5F8F73D0
:101E30002091BB02821741F0E091BA02F0E0EF5529
:101E4000FD4F958F8093BA02FF91EF919F918F91F3
:101E50002F910F900FBE0F901F9018958081F4CF97
:101E60001F920F920FB60F9211242F933F934F930F
:101E70005F936F937F938F939F93AF93BF93EF93F2
:101E8000FF938091B900887F803609F44AC0F0F54D
:101E9000883209F4A7C018F5803109F49BC0B8F462
:101EA000882309F4F9C0883009F494C0FF91EF91B8
:101EB000BF91AF919F918F917F916F915F914F9162
:101EC0003F912F910F900FBE0F901F901895883162
:101ED00009F488C0803251F78093750214C08034B1
:101EE00009F49DC040F48033B9F38833F9F6809348
:101EF000750285ECB0C0803509F485C0883509F4D9
:101F000096C0883499F60E94560ED0CF883909F4CD
:101F10008CC038F5883729F050F4883611F08037B6
:101F200029F683E0809377021092410257C08838E7
:101F300009F47BC0803919F0803809F0B7CF80915F
:101F40004102803208F071C0E091410281E08E0FC1
:101F5000809341028091BB00F0E0EF5DFD4F8083F4
:101F60003DC0803B39F0E0F4803A09F479C0883A0A
:101F700009F09CCF84E080937702109220021092A7
:101F80001F02E0914402F0914502099580911F02E1
:101F900081110FC081E080931F021092FF0109C0E0
:101FA000803C09F4A6CF883C09F4A3CF883B09F014
:101FB0007DCFE091200281E08E0F80932002F0E03F
:101FC000E150FE4F80818093BB0090912002809170
:101FD0001F0229C0809152028093BB0085EC809340
:101FE000BC0064CF9091740280917302981758F5E9
:101FF000E091740281E08E0F80937402F0E0ED5A5C
:10200000FD4F8081E9CFE091740281E08E0F8093D3
:1020100074028091BB00F0E0ED5AFD4F80839091F7
:102020007402809173029817C8F285E8D8CFE091C6
:10203000740281E08E0F809374028091BB00F0E007
:10204000ED5AFD4F80838091760281115CCF81E053
:102050008093510284EA8093BC001092770226CFCD
:1020600085EC8093BC00109277028091410280320F
:1020700030F4E0914102F0E0EF5DFD4F108260919D
:10208000410270E0E0914202F091430281E292E06D
:102090000995109241020ACF1092750234CFE1EAFD
:1020A000F2E01382128288EE93E0A0E0B0E0848335
:1020B0009583A683B78324E231E03183208325EC26
:1020C00030E03587248724EC30E03787268720EC02
:1020D00030E0318B208B21EC30E0338B228B22ECF3
:1020E00030E0358B248B26EC30E0378B268B118E3D
:1020F000128E138E148EEEE3F3E013821282848329
:102100009583A683B78386E391E091838083EAE495
:10211000F3E01182108281E082831482138216829E
:102120001582108617820895CF93DF93CDB7DEB75F
:102130002C970FB6F894DEBF0FBECDBF789484B550
:10214000826084BD84B5816084BD85B5826085BDB3
:1021500085B5816085BD80916E00816080936E0041
:102160001092810080918100826080938100809133
:1021700081008160809381008091800081608093E4
:1021800080008091B10084608093B1008091B000A4
:1021900081608093B00080917A00846080937A009F
:1021A00080917A00826080937A0080917A008160C9
:1021B00080937A0080917A00806880937A001092F0
:1021C000C100E091B102F091B20282E08083E0911F
:1021D000AD02F091AE021082E091AF02F091B00238
:1021E0008FEC80831092B902E091B502F091B602B3
:1021F00086E0F82EF082E091B302F091B402808183
:1022000080618083E091B302F091B40280818860A4
:102210008083E091B302F091B40280818068808372
:10222000E091B302F091B40280818F7D808381EAD6
:1022300092E00E94CF030AE413E086E090E09093DE
:102240004B0380934A0310924C0381EA92E09093EF
:102250004E0380934D036CE971E00E94640861E0D5
:102260008DE00E942C0261E08DE00E94E00183EE8F
:1022700092E09F938F931F92FF921F930F930E9460
:10228000C708109247021092460210927E021092E6
:10229000A0020E94240485EB92E090934502809373
:1022A000440286EB92E0909343028093420289E7D6
:1022B00092E09F938F931F9284E08F931F930F93CD
:1022C0000E94C7080FB6F894DEBF0FBECDBF01E075
:1022D00010E0F12CE12C6624639494E2A92E92E0A4
:1022E000B92E2AE4C22E23E0D22E38E5832E32E026
:1022F000932E44E0542E60927D0200939F02109230
:102300007E021092A0020E9458048111A0C01F9367
:102310000F939F928F921F925F92DF92CF920E94B3
:10232000C7083FEFE31AF30A0FB6F894DEBF0FBEFB
:10233000CDBF702E0F5F1F4F0F371105E1F60E94C2
:102340001704E114F10409F095C08DE092E09F9329
:102350008F931F9284E08F938AE493E09F938F93EF
:102360000E94C7080F900F900F900F900F900F9042
:1023700089EF91E09F938F931F9284E08F938AE47B
:1023800093E09F938F930E94C7080F900F900F9038
:102390000F900F900F908EE090E0EF2811F482E103
:1023A00090E00E94AC0B85E090E00E94E40A86E099
:1023B00090E00E94E40A85EA92E09F938F931F9237
:1023C00084E08F938AE493E09F938F930E94C708E1
:1023D0000F900F900F900F900F900F9010E000E073
:1023E00060E0C8010E942E140F5F1F4F011534E0FA
:1023F0001307B1F78DE892E09F938F931F9284E0CB
:102400008F930AE413E01F930F930E94C70860E0C4
:102410008DE00E94E00188EB92E09F938F931F92E2
:1024200086E08F931F930F930E94C7080FB6F8940E
:10243000DEBF0FBECDBF00E010E001151105E9F3CE
:102440000E944C038823C9F30E940000F6CF843019
:1024500009F070CF1F930F93BF92AF921F928F938B
:10246000DF92CF920E94C7080FB6F894DEBF0FBE6E
:10247000CDBF60CF1F927F928DED91E09F938F93A0
:102480001F9214E01F938AE493E09F938F930E941E
:10249000C7081C821B8288E191E09A8389837D8230
:1024A00084E18A871B871C8610924702109246029D
:1024B00010927E021092A0020E94240485EB92E00A
:1024C000909345028093440286EB92E090934302FE
:1024D000809342021E828B850FB6F894DEBF0FBE3A
:1024E000CDBF823010F098E09E83898762E370E070
:1024F00080E090E00E9482026C85CE0101960E94ED
:10250000C50568EE73E080E090E00E94820260E31F
:10251000CE0101960E94FD070BE416E4C801019765
:10252000F1F760E3CE0101960E94FD07C801019713
:10253000F1F760E3CE0101960E94FD0783E592E08A
:102540000197F1F760E2CE0101960E94FD076E81CE
:10255000606240E0CE0101960E94160884E08F83FD
:1025600040E06CE0CE0101960E94160840E061E078
:10257000CE0101960E9416080BE31FE1C8010197E6
:10258000F1F782E0888740E066E0CE0101960E9484
:10259000160840E062E0CE0101960E941608C801CC
:1025A0000197F1F788E08C8760E0CE0101960E94E8
:1025B000C50540E061E0CE0101960E942D086FE95B
:1025C00071E0CE0101960E94BF0841E060E0CE01BB
:1025D00001960E942D0862EB71E0CE0101960E94E7
:1025E000BF0842E067E0CE0101960E942D0866EC2C
:1025F00071E0CE0101960E94BF0843E062E0CE0187
:1026000001960E942D086DEC71E0CE0101960E94AA
:10261000BF08AECE0E944C1308F481E00895E89400
:1026200009C097FB3EF490958095709561957F4F1A
:102630008F4F9F4F9923A9F0F92F96E9BB279395C8
:10264000F695879577956795B795F111F8CFFAF4D8
:10265000BB0F11F460FF1BC06F5F7F4F8F4F9F4F09
:1026600016C0882311F096E911C0772321F09EE867
:10267000872F762F05C0662371F096E8862F70E0CD
:1026800060E02AF09A95660F771F881FDAF7880FA7
:102690009695879597F90895990F0008550FAA0BFD
:1026A000E0E8FEEF16161706E807F907C0F0121665
:1026B0001306E407F50798F0621B730B840B950B68
:1026C00039F40A2661F0232B242B252B21F40895BD
:1026D0000A2609F4A140A6958FEF811D811D08955A
:1026E0000E9483130C94F4130E94E61338F00E94A6
:1026F000ED1320F0952311F00C94DD130C94E313EB
:1027000011240C9428140E94051470F3959FC1F3B2
:10271000950F50E0551F629FF001729FBB27F00D8F
:10272000B11D639FAA27F00DB11DAA1F649F6627E4
:10273000B00DA11D661F829F2227B00DA11D621F33
:10274000739FB00DA11D621F839FA00D611D221FED
:10275000749F3327A00D611D231F849F600D211DD1
:10276000822F762F6A2F11249F5750409AF0F1F054
:1027700088234AF0EE0FFF1FBB1F661F771F881FBD
:1027800091505040A9F79E3F510580F00C94DD1305
:102790000C9428145F3FE4F3983ED4F38695779524
:1027A0006795B795F795E7959F5FC1F7FE2B880F63
:1027B000911D9695879597F9089597F99F6780E8F9
:1027C00070E060E008959FEF80EC089500240A9483
:1027D0001616170618060906089500240A941216FC
:1027E0001306140605060895092E0394000C11F42F
:1027F000882352F0BB0F40F4BF2B11F460FF04C0DC
:102800006F5F7F4F8F4F9F4F089557FD9058440F34
:10281000551F59F05F3F71F04795880F97FB991F3F
:1028200061F09F3F79F087950895121613061406FC
:10283000551FF2CF4695F1DF08C016161706180689
:10284000991FF1CF86957105610508940895E89464
:10285000BB2766277727CB0197F90895262FF9998B
:10286000FECF1FBA92BD81BD20BD0FB6F894FA9A73
:10287000F99A0FBE019608952F923F924F925F9260
:102880006F927F928F929F92AF92BF92CF92DF9280
:10289000EF92FF920F931F93CF93DF93CDB7DEB7E5
:1028A000CA1BDB0B0FB6F894DEBF0FBECDBF099479
:1028B0002A88398848885F846E847D848C849B84D0
:1028C000AA84B984C884DF80EE80FD800C811B81DE
:1028D000AA81B981CE0FD11D0FB6F894DEBF0FBE0D
:1028E000CDBFED01089597FB072E16F4009407D095
:1028F00077FD09D00E94A91407FC05D03EF49095FD
:1029000081959F4F0895709561957F4F0895A1E23D
:102910001A2EAA1BBB1BFD010DC0AA1FBB1FEE1F59
:10292000FF1FA217B307E407F50720F0A21BB30BA4
:10293000E40BF50B661F771F881F991F1A9469F720
:1029400060957095809590959B01AC01BD01CF017C
:102950000895AA1BBB1B51E107C0AA1FBB1FA617E6
:10296000B70710F0A61BB70B881F991F5A95A9F738
:1029700080959095BC01CD010895EE0FFF1F059045
:10298000F491E02D09945058BB27AA270E94DB142C
:102990000C94F4130E94E61338F00E94ED1320F01B
:1029A00039F49F3F19F426F40C94E3130EF4E095E8
:1029B000E7FB0C94DD13E92F0E94051458F3BA17B6
:1029C000620773078407950720F079F4A6F50C9445
:1029D00027140EF4E0950B2EBA2FA02D0B01B90190
:1029E00090010C01CA01A0011124FF27591B99F085
:1029F000593F50F4503E68F11A16F040A22F232F91
:102A0000342F4427585FF3CF469537952795A795E0
:102A1000F0405395C9F77EF41F16BA0B620B730B87
:102A2000840BBAF09150A1F0FF0FBB1F661F771FF8
:102A3000881FC2F70EC0BA0F621F731F841F48F4AD
:102A4000879577956795B795F7959E3F08F0B0CF36
:102A50009395880F08F09927EE0F9795879508951D
:102A60000E940D1488F09F5798F0B92F9927B751FD
:102A7000B0F0E1F0660F771F881F991F1AF0BA9522
:102A8000C9F714C0B13091F00E942714B1E0089545
:102A90000C942714672F782F8827B85F39F0B93F37
:102AA000CCF3869577956795B395D9F73EF49095D5
:102AB0008095709561957F4F8F4F9F4F08950E942D
:102AC0004C1308F48FEF08950E944C13880B990B58
:102AD00008950F931F93CF93DF938230910510F4E5
:102AE00082E090E0E0915503F091560330E020E061
:102AF000B0E0A0E0309799F42115310509F44AC0FF
:102B0000281B390B24303105D8F58A819B8161154A
:102B1000710589F1FB0193838283FE0111C040811D
:102B200051810281138148175907E0F0481759076E
:102B300099F4109761F012960C93129713961C93C8
:102B40003296CF01DF91CF911F910F91089500939D
:102B5000550310935603F4CF2115310551F0421758
:102B6000530738F0A901DB019A01BD01DF01F8012B
:102B7000C1CFEF01F9CF9093560380935503CDCF8A
:102B8000FE01E20FF31F81939193225031093983A3
:102B90002883D7CF2091530330915403232B41F442
:102BA0002091020130910301309354032093530389
:102BB00020910001309101012115310541F42DB71B
:102BC0003EB74091040150910501241B350BE09163
:102BD0005303F0915403E217F307A0F42E1B3F0BAD
:102BE0002817390778F0AC014E5F5F4F241735077F
:102BF00048F04E0F5F1F509354034093530381934B
:102C000091939FCFF0E0E0E09CCFCF93DF930097CC
:102C1000E9F0FC01329713821282A0915503B09122
:102C20005603ED0130E020E01097A1F420813181BE
:102C3000820F931F209153033091540328173907B3
:102C400009F061C0F0935403E0935303DF91CF91F7
:102C50000895EA01CE17DF07E8F54A815B819E01FE
:102C600041155105B1F7E901FB83EA834991599177
:102C7000C40FD51FEC17FD0761F480819181029686
:102C8000840F951FE90199838883828193819B83B7
:102C90008A83F0E0E0E012968D919C911397009763
:102CA000B9F52D913C911197CD010296820F931F9A
:102CB00020915303309154032817390739F6309780
:102CC00051F51092560310925503B0935403A093FC
:102CD0005303BCCFD383C28340815181840F951F9E
:102CE000C817D90761F44E5F5F4F88819981480FFB
:102CF000591F518340838A819B819383828321154D
:102D0000310509F0B0CFF0935603E09355039ECF01
:102D1000FD01DC01C0CF13821282D7CFB0E0A0E06A
:102D2000E4E9F6E10C943E148C01009751F4CB01D8
:102D30000E9469158C01C801CDB7DEB7E0E10C94A3
:102D40005A14FC01E60FF71F9C0122503109E217CB
:102D5000F30708F49DC0D901CD91DC911197C617F6
:102D6000D70798F0C530D10530F3CE010497861708
:102D7000970708F3C61BD70B2297C193D1936D9386
:102D80007C93CF010E940516D6CF5B01AC1ABD0A19
:102D90004C018C0E9D1EA0915503B0915603512CF1
:102DA000412CF12CE12C109731F580915303909137
:102DB00054038815990509F05CC04616570608F0BB
:102DC00058C08091000190910101009741F48DB7A6
:102DD0009EB74091040150910501841B950BE817A3
:102DE000F90708F055C0F0935403E0935303F90139
:102DF00071836083A0CF8D919C91119712966C90F6
:102E0000129713967C901397A815B90559F56C0184
:102E100042E0C40ED11CCA14DB0420F1AC014A19F3
:102E20005B09DA011296159780F0628273825183F2
:102E30004083D9016D937C93E114F10471F0D701C3
:102E40001396FC93EE93129776CF22968C0F9D1FCC
:102E5000F90191838083F301EFCFF0935603E09360
:102E6000550369CF4816590608F42C017D01D3019A
:102E70009ACFCB010E9469157C01009749F0AE0101
:102E8000B8010E944B17C8010E940516870153CF55
:102E900010E000E050CFFB01DC0102C001900D9278
:102EA00041505040D8F70895FB01DC0101900D928C
:0A2EB0000020E1F70895F894FFCF29
:102EBA0000005703800000004000140054005E0028
:102ECA00BC007701000000005E08E202D805EF03AB
:102EDA00000000008203E2020F03CF0340031E0337
:102EEA0032030000000096056905D8053F05620512
:102EFA004F0540053A20006E616E00696E66006FEC
:102F0A007666003078003062005400460046455725
:102F1A004E5456006F6E006F66660061204453314E
:102F2A003853323000612044533138423230006124
:102F3A00204453313832320061204453313832351B
:102F4A0000616E20756E6B6E6F776E000D0A004819
:102F5A00656C6C6F2C20486F6D656272657765725F
:102F6A002100596F75722042726577506920446951
:102F7A0073706C617900576F726B732100406C62D9
:0E2F8A00757373792073617973206869210073
:00000001FF
